{
  "abi": [
    {
      "inputs": [
        {
          "internalType": "address",
          "name": "_dai_address",
          "type": "address"
        },
        {
          "internalType": "address",
          "name": "_adai_address",
          "type": "address"
        },
        {
          "internalType": "address",
          "name": "_link",
          "type": "address"
        },
        {
          "internalType": "address",
          "name": "_poolAddressProvider",
          "type": "address"
        },
        {
          "internalType": "address",
          "name": "_oracle",
          "type": "address"
        },
        {
          "internalType": "string",
          "name": "_jobID",
          "type": "string"
        },
        {
          "internalType": "uint256",
          "name": "_fee",
          "type": "uint256"
        }
      ],
      "stateMutability": "nonpayable",
      "type": "constructor"
    },
    {
      "anonymous": false,
      "inputs": [
        {
          "indexed": true,
          "internalType": "bytes32",
          "name": "id",
          "type": "bytes32"
        }
      ],
      "name": "ChainlinkCancelled",
      "type": "event"
    },
    {
      "anonymous": false,
      "inputs": [
        {
          "indexed": true,
          "internalType": "bytes32",
          "name": "id",
          "type": "bytes32"
        }
      ],
      "name": "ChainlinkFulfilled",
      "type": "event"
    },
    {
      "anonymous": false,
      "inputs": [
        {
          "indexed": true,
          "internalType": "bytes32",
          "name": "id",
          "type": "bytes32"
        }
      ],
      "name": "ChainlinkRequested",
      "type": "event"
    },
    {
      "inputs": [
        {
          "internalType": "uint256",
          "name": "",
          "type": "uint256"
        }
      ],
      "name": "APIaddresses",
      "outputs": [
        {
          "internalType": "string",
          "name": "",
          "type": "string"
        }
      ],
      "stateMutability": "view",
      "type": "function"
    },
    {
      "inputs": [
        {
          "internalType": "address",
          "name": "_customer",
          "type": "address"
        }
      ],
      "name": "UpdateOracleData",
      "outputs": [],
      "stateMutability": "nonpayable",
      "type": "function"
    },
    {
      "inputs": [],
      "name": "adai",
      "outputs": [
        {
          "internalType": "contract IERC20",
          "name": "",
          "type": "address"
        }
      ],
      "stateMutability": "view",
      "type": "function"
    },
    {
      "inputs": [],
      "name": "adai_address",
      "outputs": [
        {
          "internalType": "address",
          "name": "",
          "type": "address"
        }
      ],
      "stateMutability": "view",
      "type": "function"
    },
    {
      "inputs": [
        {
          "internalType": "address",
          "name": "_customer",
          "type": "address"
        },
        {
          "internalType": "address",
          "name": "_donor",
          "type": "address"
        },
        {
          "internalType": "uint256",
          "name": "_value",
          "type": "uint256"
        }
      ],
      "name": "addNewCustomer",
      "outputs": [],
      "stateMutability": "nonpayable",
      "type": "function"
    },
    {
      "inputs": [
        {
          "internalType": "int256",
          "name": "",
          "type": "int256"
        }
      ],
      "name": "agreementIdToRetrievedData",
      "outputs": [
        {
          "internalType": "uint256",
          "name": "",
          "type": "uint256"
        }
      ],
      "stateMutability": "view",
      "type": "function"
    },
    {
      "inputs": [],
      "name": "checkBalance",
      "outputs": [
        {
          "internalType": "uint256",
          "name": "dai_balance",
          "type": "uint256"
        },
        {
          "internalType": "uint256",
          "name": "adai_balance",
          "type": "uint256"
        }
      ],
      "stateMutability": "view",
      "type": "function"
    },
    {
      "inputs": [],
      "name": "checkDepositAmount",
      "outputs": [
        {
          "internalType": "uint256",
          "name": "deposit",
          "type": "uint256"
        }
      ],
      "stateMutability": "view",
      "type": "function"
    },
    {
      "inputs": [
        {
          "internalType": "address",
          "name": "_customer",
          "type": "address"
        }
      ],
      "name": "checkIdForCustomer",
      "outputs": [
        {
          "internalType": "int256",
          "name": "",
          "type": "int256"
        }
      ],
      "stateMutability": "view",
      "type": "function"
    },
    {
      "inputs": [
        {
          "internalType": "address",
          "name": "_donor",
          "type": "address"
        }
      ],
      "name": "checkIdForDonor",
      "outputs": [
        {
          "internalType": "int256",
          "name": "",
          "type": "int256"
        }
      ],
      "stateMutability": "view",
      "type": "function"
    },
    {
      "inputs": [
        {
          "internalType": "int256",
          "name": "agreementId",
          "type": "int256"
        }
      ],
      "name": "checkvalueForAgreementId",
      "outputs": [
        {
          "internalType": "uint256",
          "name": "",
          "type": "uint256"
        }
      ],
      "stateMutability": "view",
      "type": "function"
    },
    {
      "inputs": [
        {
          "internalType": "bool",
          "name": "_paused",
          "type": "bool"
        }
      ],
      "name": "circuitBreaker",
      "outputs": [],
      "stateMutability": "nonpayable",
      "type": "function"
    },
    {
      "inputs": [],
      "name": "dai",
      "outputs": [
        {
          "internalType": "contract IERC20",
          "name": "",
          "type": "address"
        }
      ],
      "stateMutability": "view",
      "type": "function"
    },
    {
      "inputs": [],
      "name": "dai_address",
      "outputs": [
        {
          "internalType": "address",
          "name": "",
          "type": "address"
        }
      ],
      "stateMutability": "view",
      "type": "function"
    },
    {
      "inputs": [],
      "name": "depositedFunds",
      "outputs": [
        {
          "internalType": "uint256",
          "name": "",
          "type": "uint256"
        }
      ],
      "stateMutability": "view",
      "type": "function"
    },
    {
      "inputs": [],
      "name": "escapeHatch",
      "outputs": [],
      "stateMutability": "nonpayable",
      "type": "function"
    },
    {
      "inputs": [
        {
          "internalType": "bytes32",
          "name": "_requestId",
          "type": "bytes32"
        },
        {
          "internalType": "uint256",
          "name": "_value",
          "type": "uint256"
        }
      ],
      "name": "fulfill",
      "outputs": [],
      "stateMutability": "nonpayable",
      "type": "function"
    },
    {
      "inputs": [],
      "name": "lendingPool",
      "outputs": [
        {
          "internalType": "contract ILendingPoolV2",
          "name": "",
          "type": "address"
        }
      ],
      "stateMutability": "view",
      "type": "function"
    },
    {
      "inputs": [
        {
          "internalType": "uint256",
          "name": "",
          "type": "uint256"
        }
      ],
      "name": "oracleData",
      "outputs": [
        {
          "internalType": "uint256",
          "name": "",
          "type": "uint256"
        }
      ],
      "stateMutability": "view",
      "type": "function"
    },
    {
      "inputs": [],
      "name": "paused",
      "outputs": [
        {
          "internalType": "bool",
          "name": "",
          "type": "bool"
        }
      ],
      "stateMutability": "view",
      "type": "function"
    },
    {
      "inputs": [],
      "name": "poolAddress",
      "outputs": [
        {
          "internalType": "address",
          "name": "",
          "type": "address"
        }
      ],
      "stateMutability": "view",
      "type": "function"
    },
    {
      "inputs": [],
      "name": "poolAddressProvider",
      "outputs": [
        {
          "internalType": "address",
          "name": "",
          "type": "address"
        }
      ],
      "stateMutability": "view",
      "type": "function"
    },
    {
      "inputs": [],
      "name": "provider",
      "outputs": [
        {
          "internalType": "contract ILendingPoolAddressesProviderV2",
          "name": "",
          "type": "address"
        }
      ],
      "stateMutability": "view",
      "type": "function"
    },
    {
      "inputs": [],
      "name": "retrieveLINK",
      "outputs": [],
      "stateMutability": "nonpayable",
      "type": "function"
    },
    {
      "inputs": [
        {
          "internalType": "address",
          "name": "_customer",
          "type": "address"
        }
      ],
      "name": "setBaseLine",
      "outputs": [],
      "stateMutability": "nonpayable",
      "type": "function"
    },
    {
      "inputs": [
        {
          "internalType": "address",
          "name": "_customer",
          "type": "address"
        }
      ],
      "name": "settleAgreement",
      "outputs": [],
      "stateMutability": "nonpayable",
      "type": "function"
    },
    {
      "inputs": [
        {
          "internalType": "string",
          "name": "source",
          "type": "string"
        }
      ],
      "name": "stringToBytes32",
      "outputs": [
        {
          "internalType": "bytes32",
          "name": "result",
          "type": "bytes32"
        }
      ],
      "stateMutability": "pure",
      "type": "function"
    },
    {
      "inputs": [],
      "name": "takeProfits",
      "outputs": [],
      "stateMutability": "nonpayable",
      "type": "function"
    },
    {
      "inputs": [],
      "name": "value",
      "outputs": [
        {
          "internalType": "uint256",
          "name": "",
          "type": "uint256"
        }
      ],
      "stateMutability": "view",
      "type": "function"
    },
    {
      "inputs": [],
      "name": "viewValueFromOracle",
      "outputs": [
        {
          "internalType": "uint256",
          "name": "viewValue",
          "type": "uint256"
        }
      ],
      "stateMutability": "view",
      "type": "function"
    }
  ],
  "bytecode": "61012060405260016004556000600755600a8054606461ffff199091161763ffff00001916626400001761ffff60201b19166464000000001761ffff60301b191666020000000000001761ffff60401b191690553480156200006057600080fd5b5060405162002dc638038062002dc6833981810160405260e08110156200008657600080fd5b815160208301516040808501516060860151608087015160a088018051945196989597939692959194929382019284640100000000821115620000c857600080fd5b908301906020820185811115620000de57600080fd5b8251640100000000811182820188101715620000f957600080fd5b82525081516020918201929091019080838360005b83811015620001285781810151838201526020016200010e565b50505050905090810190601f168015620001565780820380516001836020036101000a031916815260200191505b50604081815260209283015160108054336001600160a01b0319918216179091556006805460ff191690556000600b556011805482166001600160a01b038f811691909117918290556012805484168f831617908190556014805485168e84161790819055606093841b6001600160601b031990811660e0529190931b1661010052601f8054928216929093169190911791829055630261bf8b60e01b855292519196509091169350630261bf8b92600480840193919291829003018186803b1580156200022357600080fd5b505afa15801562000238573d6000803e3d6000fd5b505050506040513d60208110156200024f57600080fd5b5051601380546001600160a01b03199081166001600160a01b039384161791829055601e8054929093169116179055606083901b6001600160601b03191660c0526200029b8262000379565b60805260a0818152604080519182019052606c80825262002d5a60208301398051620002d09160159160209091019062000447565b506040518060a00160405280606b815260200162002c86606b91398051620003019160169160209091019062000447565b506040518060a001604052806069815260200162002cf1606991398051620003329160179160209091019062000447565b506000600c819055600d819055600e556001600160a01b03851662000361576200035b6200039d565b6200036c565b6200036c8562000425565b50505050505050620004e3565b805160009082906200039057506000905062000398565b505060208101515b919050565b6200042373c89bd4e1632d3a43cb03aaad5262cbe4038bc5716001600160a01b03166338cc48316040518163ffffffff1660e01b815260040160206040518083038186803b158015620003ef57600080fd5b505afa15801562000404573d6000803e3d6000fd5b505050506040513d60208110156200041b57600080fd5b505162000425565b565b600280546001600160a01b0319166001600160a01b0392909216919091179055565b828054600181600116156101000203166002900490600052602060002090601f016020900481019282601f106200048a57805160ff1916838001178555620004ba565b82800160010185558215620004ba579182015b82811115620004ba5782518255916020019190600101906200049d565b50620004c8929150620004cc565b5090565b5b80821115620004c85760008155600101620004cd565b60805160a05160c05160601c60e05160601c6101005160601c612700620005866000398061078e528061084e5280610b4c5280611546528061177e52806117ff528061189d5250806105c852806106885280610c0f5280610c8d5280610d57528061116352806112d45280611385528061148c52806117a252806119d45280611a7b5280611b22525080611f42525080611f64525080611e9152506127006000f3fe608060405234801561001057600080fd5b50600436106101da5760003560e01c80638e5332ba11610104578063c71daccb116100a2578063df10cb6911610071578063df10cb691461054b578063ed83a99b14610553578063f32d684614610579578063f4b9fa7514610581576101da565b8063c71daccb14610438578063c8ecc79614610459578063cfb519281461047f578063dbe50cbc14610525576101da565b8063a59a9973116100de578063a59a9973146103d0578063aa4dea00146103d8578063b1405d1d146103f5578063bb6cac7814610412576101da565b80638e5332ba1461036c5780638e8eeaef146103745780639f6a011f146103aa576101da565b80633fa4f2451161017c578063626846161161014b57806362684616146102ab5780636bfac60c146102b3578063714a181b1461034557806380fe39c81461034d576101da565b80633fa4f2451461025c5780634357855e146102645780634905e59f146102875780635c975abb1461028f576101da565b80631755ff21116101b85780631755ff211461023c57806323e77db3146102445780632501fecc1461024c578063335073eb14610254576101da565b8063043c4f9e146101df578063085d48831461020e5780631554611f14610232575b600080fd5b6101fc600480360360208110156101f557600080fd5b5035610589565b60408051918252519081900360200190f35b61021661059e565b604080516001600160a01b039092168252519081900360200190f35b61023a6105ad565b005b610216610b22565b61023a610b31565b610216610ddb565b6101fc610dea565b6101fc610df0565b61023a6004803603604081101561027a57600080fd5b5080359060200135610df6565b610216610f2a565b610297610f39565b604080519115158252519081900360200190f35b610216610f42565b6102d0600480360360208110156102c957600080fd5b5035610f51565b6040805160208082528351818301528351919283929083019185019080838360005b8381101561030a5781810151838201526020016102f2565b50505050905090810190601f1680156103375780820380516001836020036101000a031916815260200191505b509250505060405180910390f35b6101fc610fec565b61023a6004803603602081101561036357600080fd5b50351515610ff2565b6101fc61101c565b61023a6004803603606081101561038a57600080fd5b506001600160a01b03813581169160208101359091169060400135611022565b61023a600480360360208110156103c057600080fd5b50356001600160a01b03166111f6565b610216611437565b6101fc600480360360208110156103ee57600080fd5b5035611446565b6101fc6004803603602081101561040b57600080fd5b503561145a565b6101fc6004803603602081101561042857600080fd5b50356001600160a01b031661146c565b610440611487565b6040805192835260208301919091528051918290030190f35b61023a6004803603602081101561046f57600080fd5b50356001600160a01b03166115bf565b6101fc6004803603602081101561049557600080fd5b8101906020810181356401000000008111156104b057600080fd5b8201836020820111156104c257600080fd5b803590602001918460018302840111640100000000831117156104e457600080fd5b91908080601f01602080910402602001604051908101604052809392919081815260200183838082843760009201919091525092955061163c945050505050565b6101fc6004803603602081101561053b57600080fd5b50356001600160a01b031661165a565b61023a611675565b61023a6004803603602081101561056957600080fd5b50356001600160a01b03166116f0565b61021661177c565b6102166117a0565b6000818152601c60205260409020545b919050565b601f546001600160a01b031681565b6010546001600160a01b031633146105c457600080fd5b60007f00000000000000000000000000000000000000000000000000000000000000006001600160a01b03166370a08231306040518263ffffffff1660e01b815260040180826001600160a01b0316815260200191505060206040518083038186803b15801561063357600080fd5b505afa158015610647573d6000803e3d6000fd5b505050506040513d602081101561065d57600080fd5b5051111561078a57601054604080516370a0823160e01b815230600482015290516001600160a01b037f000000000000000000000000000000000000000000000000000000000000000081169363a9059cbb9391169184916370a08231916024808301926020929190829003018186803b1580156106da57600080fd5b505afa1580156106ee573d6000803e3d6000fd5b505050506040513d602081101561070457600080fd5b5051604080516001600160e01b031960e086901b1681526001600160a01b03909316600484015260248301919091525160448083019260209291908290030181600087803b15801561075557600080fd5b505af1158015610769573d6000803e3d6000fd5b505050506040513d602081101561077f57600080fd5b505161078a57600080fd5b60007f00000000000000000000000000000000000000000000000000000000000000006001600160a01b03166370a08231306040518263ffffffff1660e01b815260040180826001600160a01b0316815260200191505060206040518083038186803b1580156107f957600080fd5b505afa15801561080d573d6000803e3d6000fd5b505050506040513d602081101561082357600080fd5b5051111561095057601054604080516370a0823160e01b815230600482015290516001600160a01b037f000000000000000000000000000000000000000000000000000000000000000081169363a9059cbb9391169184916370a08231916024808301926020929190829003018186803b1580156108a057600080fd5b505afa1580156108b4573d6000803e3d6000fd5b505050506040513d60208110156108ca57600080fd5b5051604080516001600160e01b031960e086901b1681526001600160a01b03909316600484015260248301919091525160448083019260209291908290030181600087803b15801561091b57600080fd5b505af115801561092f573d6000803e3d6000fd5b505050506040513d602081101561094557600080fd5b505161095057600080fd5b600061095a6117c4565b90506000816001600160a01b03166370a08231306040518263ffffffff1660e01b815260040180826001600160a01b0316815260200191505060206040518083038186803b1580156109ab57600080fd5b505afa1580156109bf573d6000803e3d6000fd5b505050506040513d60208110156109d557600080fd5b50511115610b1f57601054604080516370a0823160e01b815230600482015290516001600160a01b038085169363a9059cbb9391169184916370a08231916024808301926020929190829003018186803b158015610a3257600080fd5b505afa158015610a46573d6000803e3d6000fd5b505050506040513d6020811015610a5c57600080fd5b5051604080516001600160e01b031960e086901b1681526001600160a01b03909316600484015260248301919091525160448083019260209291908290030181600087803b158015610aad57600080fd5b505af1158015610ac1573d6000803e3d6000fd5b505050506040513d6020811015610ad757600080fd5b5051610b1f576040805162461bcd60e51b81526020600482015260126024820152712ab730b13632903a37903a3930b739b332b960711b604482015290519081900360640190fd5b50565b6013546001600160a01b031681565b6010546001600160a01b03163314610b4857600080fd5b60007f00000000000000000000000000000000000000000000000000000000000000006001600160a01b03166370a08231306040518263ffffffff1660e01b815260040180826001600160a01b0316815260200191505060206040518083038186803b158015610bb757600080fd5b505afa158015610bcb573d6000803e3d6000fd5b505050506040513d6020811015610be157600080fd5b5051600b54604080516370a0823160e01b815230600482015290519293509083039182916001600160a01b037f000000000000000000000000000000000000000000000000000000000000000016916370a0823191602480820192602092909190829003018186803b158015610c5657600080fd5b505afa158015610c6a573d6000803e3d6000fd5b505050506040513d6020811015610c8057600080fd5b50511015610d2b57610d2b7f00000000000000000000000000000000000000000000000000000000000000006001600160a01b03166370a08231306040518263ffffffff1660e01b815260040180826001600160a01b0316815260200191505060206040518083038186803b158015610cf857600080fd5b505afa158015610d0c573d6000803e3d6000fd5b505050506040513d6020811015610d2257600080fd5b505182036117d3565b6010546040805163a9059cbb60e01b81526001600160a01b0392831660048201526024810184905290517f00000000000000000000000000000000000000000000000000000000000000009092169163a9059cbb916044808201926020929091908290030181600087803b158015610da257600080fd5b505af1158015610db6573d6000803e3d6000fd5b505050506040513d6020811015610dcc57600080fd5b5051610dd757600080fd5b5050565b6012546001600160a01b031681565b600b5490565b600f5481565b60008281526005602052604090205482906001600160a01b03163314610e4d5760405162461bcd60e51b81526004018080602001828103825260288152602001806126756028913960400191505060405180910390fd5b60008181526005602052604080822080546001600160a01b03191690555182917f7cc135e0cebb02c3480ae5d74d377283180a2601f8f644edf7987b009316c63a91a26008548290600c9061ffff1660038110610ea657fe5b01556008805461ffff8082166001011661ffff1990911617905560036064600c60020154600a54640100000000900461ffff160281610ee157fe5b046064600c60010154600a5462010000900461ffff160281610eff57fe5b046064600c60000154600a5461ffff160281610f1757fe5b04010181610f2157fe5b04600955505050565b6011546001600160a01b031681565b60065460ff1681565b6014546001600160a01b031681565b60158160038110610f5e57fe5b018054604080516020601f600260001961010060018816150201909516949094049384018190048102820181019092528281529350830182828015610fe45780601f10610fb957610100808354040283529160200191610fe4565b820191906000526020600020905b815481529060010190602001808311610fc757829003601f168201915b505050505081565b600b5481565b6010546001600160a01b0316331461100957600080fd5b6006805460ff1916911515919091179055565b60095490565b60065460ff161561106f576040805162461bcd60e51b815260206004820152601260248201527110dbdb9d1c9858dd081a5cc81c185d5cd95960721b604482015290519081900360640190fd5b6001600160a01b03831660009081526018602052604081205413156110db576040805162461bcd60e51b815260206004820152601760248201527f637573746f6d657220616c726561647920657869737473000000000000000000604482015290519081900360640190fd5b600b805482019055600780546001600160a01b03808616600090815260186020908152604080832085905587841680845260198352818420869055948352601c825280832087905594548252601a815284822080546001600160a01b0319168517905584516323b872dd60e01b815260048101949094523060248501526044840186905293517f0000000000000000000000000000000000000000000000000000000000000000909216936323b872dd936064808201949293918390030190829087803b1580156111ab57600080fd5b505af11580156111bf573d6000803e3d6000fd5b505050506040513d60208110156111d557600080fd5b50516111e057600080fd5b6111e861199f565b505060078054600101905550565b60065460ff1615611243576040805162461bcd60e51b815260206004820152601260248201527110dbdb9d1c9858dd081a5cc81c185d5cd95960721b604482015290519081900360640190fd5b6001600160a01b03808216600090815260186020908152604080832054808452601c835281842054601b845282852054601a855283862054601d90955292909420549094919290911690611296846117d3565b6000858152601c602090815260408083208054600b80549190910390558390556001600160a01b0389168352601890915281205582811115611383577f00000000000000000000000000000000000000000000000000000000000000006001600160a01b031663a9059cbb87866040518363ffffffff1660e01b815260040180836001600160a01b0316815260200182815260200192505050602060405180830381600087803b15801561134957600080fd5b505af115801561135d573d6000803e3d6000fd5b505050506040513d602081101561137357600080fd5b505161137e57600080fd5b61142f565b7f00000000000000000000000000000000000000000000000000000000000000006001600160a01b031663a9059cbb83866040518363ffffffff1660e01b815260040180836001600160a01b0316815260200182815260200192505050602060405180830381600087803b1580156113fa57600080fd5b505af115801561140e573d6000803e3d6000fd5b505050506040513d602081101561142457600080fd5b505161142f57600080fd5b505050505050565b601e546001600160a01b031681565b600c816003811061145357fe5b0154905081565b601d6020526000908152604090205481565b6001600160a01b031660009081526019602052604090205490565b6000807f00000000000000000000000000000000000000000000000000000000000000006001600160a01b03166370a08231306040518263ffffffff1660e01b815260040180826001600160a01b0316815260200191505060206040518083038186803b1580156114f757600080fd5b505afa15801561150b573d6000803e3d6000fd5b505050506040513d602081101561152157600080fd5b5051604080516370a0823160e01b815230600482015290519193506001600160a01b037f000000000000000000000000000000000000000000000000000000000000000016916370a0823191602480820192602092909190829003018186803b15801561158d57600080fd5b505afa1580156115a1573d6000803e3d6000fd5b505050506040513d60208110156115b757600080fd5b505191929050565b60065460ff161561160c576040805162461bcd60e51b815260206004820152601260248201527110dbdb9d1c9858dd081a5cc81c185d5cd95960721b604482015290519081900360640190fd5b6001600160a01b031660009081526018602090815260408083205460056009819055908452601b90925290912055565b80516000908290611651575060009050610599565b50506020015190565b6001600160a01b031660009081526018602052604090205490565b6010546001600160a01b0316331461168c57600080fd5b60006116966117c4565b601054604080516370a0823160e01b815230600482015290519293506001600160a01b038085169363a9059cbb939091169184916370a0823191602480820192602092909190829003018186803b158015610a3257600080fd5b60065460ff161561173d576040805162461bcd60e51b815260206004820152601260248201527110dbdb9d1c9858dd081a5cc81c185d5cd95960721b604482015290519081900360640190fd5b6001600160a01b03811660009081526018602052604090205461175e611c0a565b611766611d87565b6009546000918252601d60205260409091205550565b7f000000000000000000000000000000000000000000000000000000000000000081565b7f000000000000000000000000000000000000000000000000000000000000000081565b6002546001600160a01b031690565b6013546040805163095ea7b360e01b81526001600160a01b0392831660048201526024810184905290517f00000000000000000000000000000000000000000000000000000000000000009092169163095ea7b3916044808201926020929091908290030181600087803b15801561184a57600080fd5b505af115801561185e573d6000803e3d6000fd5b505050506040513d602081101561187457600080fd5b50506040805163095ea7b360e01b81523060048201526024810183905290516001600160a01b037f0000000000000000000000000000000000000000000000000000000000000000169163095ea7b39160448083019260209291908290030181600087803b1580156118e557600080fd5b505af11580156118f9573d6000803e3d6000fd5b505050506040513d602081101561190f57600080fd5b5050601e5460115460408051631a4ca37b60e21b81526001600160a01b03928316600482015260248101859052306044820152905191909216916369328dec9160648083019260209291908290030181600087803b15801561197057600080fd5b505af1158015611984573d6000803e3d6000fd5b505050506040513d602081101561199a57600080fd5b505050565b6013546040805163095ea7b360e01b81526001600160a01b03928316600482015269d3c21bcecceda1000000602482015290517f00000000000000000000000000000000000000000000000000000000000000009092169163095ea7b3916044808201926020929091908290030181600087803b158015611a1f57600080fd5b505af1158015611a33573d6000803e3d6000fd5b505050506040513d6020811015611a4957600080fd5b50506040805163095ea7b360e01b815230600482015269d3c21bcecceda1000000602482015290516001600160a01b037f0000000000000000000000000000000000000000000000000000000000000000169163095ea7b39160448083019260209291908290030181600087803b158015611ac357600080fd5b505af1158015611ad7573d6000803e3d6000fd5b505050506040513d6020811015611aed57600080fd5b5050601e54601154604080516370a0823160e01b815230600482015290516001600160a01b039384169363e8eda9df938116927f0000000000000000000000000000000000000000000000000000000000000000909116916370a0823191602480820192602092909190829003018186803b158015611b6b57600080fd5b505afa158015611b7f573d6000803e3d6000fd5b505050506040513d6020811015611b9557600080fd5b5051604080516001600160e01b031960e086901b1681526001600160a01b0390931660048401526024830191909152306044830152600060648301819052905160848084019382900301818387803b158015611bf057600080fd5b505af1158015611c04573d6000803e3d6000fd5b50505050565b6010546001600160a01b03163314611c2157600080fd5b60065460ff1615611c6e576040805162461bcd60e51b815260206004820152601260248201527110dbdb9d1c9858dd081a5cc81c185d5cd95960721b604482015290519081900360640190fd5b600a5461ffff80821662010000830482160164010000000090920481169190910116611ccb5760405162461bcd60e51b815260040180806020018281038252602e81526020018061269d602e913960400191505060405180910390fd5b6008805461ffff19169055611d6d601560005b01805460408051602060026001851615610100026000190190941693909304601f81018490048402820184019092528181529291830182828015611d635780601f10611d3857610100808354040283529160200191611d63565b820191906000526020600020905b815481529060010190602001808311611d4657829003601f168201915b5050505050611e34565b50611d7a60156001611cde565b50610b1f60156002611cde565b60065460ff1615611dd4576040805162461bcd60e51b815260206004820152601260248201527110dbdb9d1c9858dd081a5cc81c185d5cd95960721b604482015290519081900360640190fd5b60005b60038161ffff161015610b1f57600c8161ffff1660038110611df557fe5b0154611e2c57600a8054600161ffff68010000000000000000808404821692909201160269ffff0000000000000000199091161790555b600101611dd7565b60065460009060ff1615611e84576040805162461bcd60e51b815260206004820152601260248201527110dbdb9d1c9858dd081a5cc81c185d5cd95960721b604482015290519081900360640190fd5b611e8c612602565b611ebe7f0000000000000000000000000000000000000000000000000000000000000000306321abc2af60e11b611f8f565b60408051808201909152600381526219d95d60ea1b6020820152909150611ee790829085611fb4565b611f3d604051806040016040528060048152602001630e0c2e8d60e31b8152506040518060400160405280600d81526020016c3230ba30971817373ab6b132b960991b81525083611fb49092919063ffffffff16565b611f887f0000000000000000000000000000000000000000000000000000000000000000827f0000000000000000000000000000000000000000000000000000000000000000611fd2565b9392505050565b611f97612602565b611f9f612602565b611fab818686866121a0565b95945050505050565b6080830151611fc390836121dd565b608083015161199a90826121dd565b6004546040805130606090811b60208084019190915260348084018690528451808503909101815260549093018452825192810192909220908601939093526000838152600590915281812080546001600160a01b0319166001600160a01b038816179055905182917fb5e6e01e79f91267dc17b4e6314d5d4d03593d2ceee0fbb452b750bd70ea5af991a26002546001600160a01b0316634000aea0858461207a876121f4565b6040518463ffffffff1660e01b815260040180846001600160a01b0316815260200183815260200180602001828103825283818151815260200191508051906020019080838360005b838110156120db5781810151838201526020016120c3565b50505050905090810190601f1680156121085780820380516001836020036101000a031916815260200191505b50945050505050602060405180830381600087803b15801561212957600080fd5b505af115801561213d573d6000803e3d6000fd5b505050506040513d602081101561215357600080fd5b50516121905760405162461bcd60e51b81526004018080602001828103825260238152602001806126526023913960400191505060405180910390fd5b6004805460010190559392505050565b6121a8612602565b6121b88560800151610100612318565b50509183526001600160a01b031660208301526001600160e01b031916604082015290565b6121ea8260038351612358565b61199a828261242c565b6060634042994660e01b6000808460000151856020015186604001518760600151600189608001516000015160405160240180896001600160a01b03168152602001888152602001878152602001866001600160a01b03168152602001856001600160e01b031916815260200184815260200183815260200180602001828103825283818151815260200191508051906020019080838360005b838110156122a657818101518382015260200161228e565b50505050905090810190601f1680156122d35780820380516001836020036101000a031916815260200191505b5060408051601f198184030181529190526020810180516001600160e01b03166001600160e01b0319909d169c909c17909b5250989950505050505050505050919050565b612320612637565b60208206156123355760208206602003820191505b506020808301829052604080518085526000815283019091019052815b92915050565b60178111612379576123738360e0600585901b168317612446565b5061199a565b60ff81116123a357612396836018611fe0600586901b1617612446565b506123738382600161245e565b61ffff81116123ce576123c1836019611fe0600586901b1617612446565b506123738382600261245e565b63ffffffff81116123fb576123ee83601a611fe0600586901b1617612446565b506123738382600461245e565b67ffffffffffffffff811161199a5761241f83601b611fe0600586901b1617612446565b50611c048382600861245e565b612434612637565b611f888384600001515184855161247f565b61244e612637565b611f88838460000151518461252b565b612466612637565b612477848560000151518585612576565b949350505050565b612487612637565b825182111561249557600080fd5b846020015182850111156124bf576124bf856124b787602001518786016125d4565b6002026125eb565b6000808651805187602083010193508088870111156124de5787860182525b505050602084015b602084106125055780518252601f1990930192602091820191016124e6565b51815160001960208690036101000a019081169019919091161790525083949350505050565b612533612637565b8360200151831061254f5761254f8485602001516002026125eb565b83518051602085830101848153508085141561256c576001810182525b5093949350505050565b61257e612637565b8460200151848301111561259b5761259b858584016002026125eb565b60006001836101000a0390508551838682010185831982511617815250805184870111156125c95783860181525b509495945050505050565b6000818311156125e5575081612352565b50919050565b81516125f78383612318565b50611c04838261242c565b6040805160a081018252600080825260208201819052918101829052606081019190915260808101612632612637565b905290565b60405180604001604052806060815260200160008152509056fe756e61626c6520746f207472616e73666572416e6443616c6c20746f206f7261636c65536f75726365206d75737420626520746865206f7261636c65206f66207468652072657175657374706c6561736520736574207765696768747320666f72206167677265676174696e67206f7261636c652064617461a264697066735822122020eea926a041cee8f9c4bf047029d3dce93a4cb47389f542fcc3b93ce0e081b664736f6c634300060c003368747470733a2f2f7261772e67697468756275736572636f6e74656e742e636f6d2f6a6d636f6f6b313138362f6a6d636f6f6b313138362e6769746875622e696f2f6d61696e2f446174612f4272696768744c696e6b446174612f4c616e64736174446174612e6a736f6e68747470733a2f2f7261772e67697468756275736572636f6e74656e742e636f6d2f6a6d636f6f6b313138362f6a6d636f6f6b313138362e6769746875622e696f2f6d61696e2f446174612f4272696768744c696e6b446174612f4d6f646973446174612e6a736f6e68747470733a2f2f7261772e67697468756275736572636f6e74656e742e636f6d2f6a6d636f6f6b313138362f6a6d636f6f6b313138362e6769746875622e696f2f6d61696e2f446174612f4272696768744c696e6b446174612f53656e74696e656c446174612e6a736f6e",
  "bytecodeSha1": "da39a3ee5e6b4b0d3255bfef95601890afd80709",
  "compiler": {
    "evm_version": "istanbul",
    "optimizer": {
      "enabled": true,
      "runs": 200
    },
    "version": "0.6.12+commit.27d51765"
  },
  "contractName": "BrightLink",
  "language": "Solidity",
  "natspec": {
    "kind": "dev",
    "methods": {
      "UpdateOracleData(address)": {
        "details": "assumes remote sensing scripts have been run a second time, updating the API endpoints"
      },
      "addNewCustomer(address,address,uint256)": {
        "details": "Add new customer to contract. Adds customer to mappings, generates new  agreementId. Triggers deposit of funds to Aave pool to begin accruing yield. Adds value to cumulative deposits. Requires remote sensing scripts to have been run to estabish baseline data at API endpoints Requires donor to approve dai transfer before function is called: dai.approve(contract,200e18,{'from':donor}) Approving _value only (rather than unlimited approval) protects against any re-entrancy attack. Removed onlyOwner modifier so anyone can add an agreement if paid for by a donor. Requires donor to have approved a DAI transfer of value >= _value."
      },
      "retrieveLINK()": {
        "details": "release any spare LINK to the contract owner"
      },
      "setBaseLine(address)": {
        "details": "assumes remote sensing scripts have been run setting baseline data at the API endpoints"
      },
      "settleAgreement(address)": {
        "details": "settles the agreement for a given customer by checking the agreed value and paying it to the customer's wallet if the updated values exceeds the baseline. Otherwise, return to donor."
      },
      "takeProfits()": {
        "details": "withdraws enough dai from Aave pool to equal the total accumulated profit and transfers it to the owners wallet always persists enough adai in contract to payout all active agreements"
      }
    },
    "version": 1
  },
  "opcodes": "PUSH1 0x80 PUSH1 0x40 MSTORE CALLVALUE DUP1 ISZERO PUSH2 0x10 JUMPI PUSH1 0x0 DUP1 REVERT JUMPDEST POP PUSH1 0x4 CALLDATASIZE LT PUSH2 0x1DA JUMPI PUSH1 0x0 CALLDATALOAD PUSH1 0xE0 SHR DUP1 PUSH4 0x8E5332BA GT PUSH2 0x104 JUMPI DUP1 PUSH4 0xC71DACCB GT PUSH2 0xA2 JUMPI DUP1 PUSH4 0xDF10CB69 GT PUSH2 0x71 JUMPI DUP1 PUSH4 0xDF10CB69 EQ PUSH2 0x54B JUMPI DUP1 PUSH4 0xED83A99B EQ PUSH2 0x553 JUMPI DUP1 PUSH4 0xF32D6846 EQ PUSH2 0x579 JUMPI DUP1 PUSH4 0xF4B9FA75 EQ PUSH2 0x581 JUMPI PUSH2 0x1DA JUMP JUMPDEST DUP1 PUSH4 0xC71DACCB EQ PUSH2 0x438 JUMPI DUP1 PUSH4 0xC8ECC796 EQ PUSH2 0x459 JUMPI DUP1 PUSH4 0xCFB51928 EQ PUSH2 0x47F JUMPI DUP1 PUSH4 0xDBE50CBC EQ PUSH2 0x525 JUMPI PUSH2 0x1DA JUMP JUMPDEST DUP1 PUSH4 0xA59A9973 GT PUSH2 0xDE JUMPI DUP1 PUSH4 0xA59A9973 EQ PUSH2 0x3D0 JUMPI DUP1 PUSH4 0xAA4DEA00 EQ PUSH2 0x3D8 JUMPI DUP1 PUSH4 0xB1405D1D EQ PUSH2 0x3F5 JUMPI DUP1 PUSH4 0xBB6CAC78 EQ PUSH2 0x412 JUMPI PUSH2 0x1DA JUMP JUMPDEST DUP1 PUSH4 0x8E5332BA EQ PUSH2 0x36C JUMPI DUP1 PUSH4 0x8E8EEAEF EQ PUSH2 0x374 JUMPI DUP1 PUSH4 0x9F6A011F EQ PUSH2 0x3AA JUMPI PUSH2 0x1DA JUMP JUMPDEST DUP1 PUSH4 0x3FA4F245 GT PUSH2 0x17C JUMPI DUP1 PUSH4 0x62684616 GT PUSH2 0x14B JUMPI DUP1 PUSH4 0x62684616 EQ PUSH2 0x2AB JUMPI DUP1 PUSH4 0x6BFAC60C EQ PUSH2 0x2B3 JUMPI DUP1 PUSH4 0x714A181B EQ PUSH2 0x345 JUMPI DUP1 PUSH4 0x80FE39C8 EQ PUSH2 0x34D JUMPI PUSH2 0x1DA JUMP JUMPDEST DUP1 PUSH4 0x3FA4F245 EQ PUSH2 0x25C JUMPI DUP1 PUSH4 0x4357855E EQ PUSH2 0x264 JUMPI DUP1 PUSH4 0x4905E59F EQ PUSH2 0x287 JUMPI DUP1 PUSH4 0x5C975ABB EQ PUSH2 0x28F JUMPI PUSH2 0x1DA JUMP JUMPDEST DUP1 PUSH4 0x1755FF21 GT PUSH2 0x1B8 JUMPI DUP1 PUSH4 0x1755FF21 EQ PUSH2 0x23C JUMPI DUP1 PUSH4 0x23E77DB3 EQ PUSH2 0x244 JUMPI DUP1 PUSH4 0x2501FECC EQ PUSH2 0x24C JUMPI DUP1 PUSH4 0x335073EB EQ PUSH2 0x254 JUMPI PUSH2 0x1DA JUMP JUMPDEST DUP1 PUSH4 0x43C4F9E EQ PUSH2 0x1DF JUMPI DUP1 PUSH4 0x85D4883 EQ PUSH2 0x20E JUMPI DUP1 PUSH4 0x1554611F EQ PUSH2 0x232 JUMPI JUMPDEST PUSH1 0x0 DUP1 REVERT JUMPDEST PUSH2 0x1FC PUSH1 0x4 DUP1 CALLDATASIZE SUB PUSH1 0x20 DUP2 LT ISZERO PUSH2 0x1F5 JUMPI PUSH1 0x0 DUP1 REVERT JUMPDEST POP CALLDATALOAD PUSH2 0x589 JUMP JUMPDEST PUSH1 0x40 DUP1 MLOAD SWAP2 DUP3 MSTORE MLOAD SWAP1 DUP2 SWAP1 SUB PUSH1 0x20 ADD SWAP1 RETURN JUMPDEST PUSH2 0x216 PUSH2 0x59E JUMP JUMPDEST PUSH1 0x40 DUP1 MLOAD PUSH1 0x1 PUSH1 0x1 PUSH1 0xA0 SHL SUB SWAP1 SWAP3 AND DUP3 MSTORE MLOAD SWAP1 DUP2 SWAP1 SUB PUSH1 0x20 ADD SWAP1 RETURN JUMPDEST PUSH2 0x23A PUSH2 0x5AD JUMP JUMPDEST STOP JUMPDEST PUSH2 0x216 PUSH2 0xB22 JUMP JUMPDEST PUSH2 0x23A PUSH2 0xB31 JUMP JUMPDEST PUSH2 0x216 PUSH2 0xDDB JUMP JUMPDEST PUSH2 0x1FC PUSH2 0xDEA JUMP JUMPDEST PUSH2 0x1FC PUSH2 0xDF0 JUMP JUMPDEST PUSH2 0x23A PUSH1 0x4 DUP1 CALLDATASIZE SUB PUSH1 0x40 DUP2 LT ISZERO PUSH2 0x27A JUMPI PUSH1 0x0 DUP1 REVERT JUMPDEST POP DUP1 CALLDATALOAD SWAP1 PUSH1 0x20 ADD CALLDATALOAD PUSH2 0xDF6 JUMP JUMPDEST PUSH2 0x216 PUSH2 0xF2A JUMP JUMPDEST PUSH2 0x297 PUSH2 0xF39 JUMP JUMPDEST PUSH1 0x40 DUP1 MLOAD SWAP2 ISZERO ISZERO DUP3 MSTORE MLOAD SWAP1 DUP2 SWAP1 SUB PUSH1 0x20 ADD SWAP1 RETURN JUMPDEST PUSH2 0x216 PUSH2 0xF42 JUMP JUMPDEST PUSH2 0x2D0 PUSH1 0x4 DUP1 CALLDATASIZE SUB PUSH1 0x20 DUP2 LT ISZERO PUSH2 0x2C9 JUMPI PUSH1 0x0 DUP1 REVERT JUMPDEST POP CALLDATALOAD PUSH2 0xF51 JUMP JUMPDEST PUSH1 0x40 DUP1 MLOAD PUSH1 0x20 DUP1 DUP3 MSTORE DUP4 MLOAD DUP2 DUP4 ADD MSTORE DUP4 MLOAD SWAP2 SWAP3 DUP4 SWAP3 SWAP1 DUP4 ADD SWAP2 DUP6 ADD SWAP1 DUP1 DUP4 DUP4 PUSH1 0x0 JUMPDEST DUP4 DUP2 LT ISZERO PUSH2 0x30A JUMPI DUP2 DUP2 ADD MLOAD DUP4 DUP3 ADD MSTORE PUSH1 0x20 ADD PUSH2 0x2F2 JUMP JUMPDEST POP POP POP POP SWAP1 POP SWAP1 DUP2 ADD SWAP1 PUSH1 0x1F AND DUP1 ISZERO PUSH2 0x337 JUMPI DUP1 DUP3 SUB DUP1 MLOAD PUSH1 0x1 DUP4 PUSH1 0x20 SUB PUSH2 0x100 EXP SUB NOT AND DUP2 MSTORE PUSH1 0x20 ADD SWAP2 POP JUMPDEST POP SWAP3 POP POP POP PUSH1 0x40 MLOAD DUP1 SWAP2 SUB SWAP1 RETURN JUMPDEST PUSH2 0x1FC PUSH2 0xFEC JUMP JUMPDEST PUSH2 0x23A PUSH1 0x4 DUP1 CALLDATASIZE SUB PUSH1 0x20 DUP2 LT ISZERO PUSH2 0x363 JUMPI PUSH1 0x0 DUP1 REVERT JUMPDEST POP CALLDATALOAD ISZERO ISZERO PUSH2 0xFF2 JUMP JUMPDEST PUSH2 0x1FC PUSH2 0x101C JUMP JUMPDEST PUSH2 0x23A PUSH1 0x4 DUP1 CALLDATASIZE SUB PUSH1 0x60 DUP2 LT ISZERO PUSH2 0x38A JUMPI PUSH1 0x0 DUP1 REVERT JUMPDEST POP PUSH1 0x1 PUSH1 0x1 PUSH1 0xA0 SHL SUB DUP2 CALLDATALOAD DUP2 AND SWAP2 PUSH1 0x20 DUP2 ADD CALLDATALOAD SWAP1 SWAP2 AND SWAP1 PUSH1 0x40 ADD CALLDATALOAD PUSH2 0x1022 JUMP JUMPDEST PUSH2 0x23A PUSH1 0x4 DUP1 CALLDATASIZE SUB PUSH1 0x20 DUP2 LT ISZERO PUSH2 0x3C0 JUMPI PUSH1 0x0 DUP1 REVERT JUMPDEST POP CALLDATALOAD PUSH1 0x1 PUSH1 0x1 PUSH1 0xA0 SHL SUB AND PUSH2 0x11F6 JUMP JUMPDEST PUSH2 0x216 PUSH2 0x1437 JUMP JUMPDEST PUSH2 0x1FC PUSH1 0x4 DUP1 CALLDATASIZE SUB PUSH1 0x20 DUP2 LT ISZERO PUSH2 0x3EE JUMPI PUSH1 0x0 DUP1 REVERT JUMPDEST POP CALLDATALOAD PUSH2 0x1446 JUMP JUMPDEST PUSH2 0x1FC PUSH1 0x4 DUP1 CALLDATASIZE SUB PUSH1 0x20 DUP2 LT ISZERO PUSH2 0x40B JUMPI PUSH1 0x0 DUP1 REVERT JUMPDEST POP CALLDATALOAD PUSH2 0x145A JUMP JUMPDEST PUSH2 0x1FC PUSH1 0x4 DUP1 CALLDATASIZE SUB PUSH1 0x20 DUP2 LT ISZERO PUSH2 0x428 JUMPI PUSH1 0x0 DUP1 REVERT JUMPDEST POP CALLDATALOAD PUSH1 0x1 PUSH1 0x1 PUSH1 0xA0 SHL SUB AND PUSH2 0x146C JUMP JUMPDEST PUSH2 0x440 PUSH2 0x1487 JUMP JUMPDEST PUSH1 0x40 DUP1 MLOAD SWAP3 DUP4 MSTORE PUSH1 0x20 DUP4 ADD SWAP2 SWAP1 SWAP2 MSTORE DUP1 MLOAD SWAP2 DUP3 SWAP1 SUB ADD SWAP1 RETURN JUMPDEST PUSH2 0x23A PUSH1 0x4 DUP1 CALLDATASIZE SUB PUSH1 0x20 DUP2 LT ISZERO PUSH2 0x46F JUMPI PUSH1 0x0 DUP1 REVERT JUMPDEST POP CALLDATALOAD PUSH1 0x1 PUSH1 0x1 PUSH1 0xA0 SHL SUB AND PUSH2 0x15BF JUMP JUMPDEST PUSH2 0x1FC PUSH1 0x4 DUP1 CALLDATASIZE SUB PUSH1 0x20 DUP2 LT ISZERO PUSH2 0x495 JUMPI PUSH1 0x0 DUP1 REVERT JUMPDEST DUP2 ADD SWAP1 PUSH1 0x20 DUP2 ADD DUP2 CALLDATALOAD PUSH5 0x100000000 DUP2 GT ISZERO PUSH2 0x4B0 JUMPI PUSH1 0x0 DUP1 REVERT JUMPDEST DUP3 ADD DUP4 PUSH1 0x20 DUP3 ADD GT ISZERO PUSH2 0x4C2 JUMPI PUSH1 0x0 DUP1 REVERT JUMPDEST DUP1 CALLDATALOAD SWAP1 PUSH1 0x20 ADD SWAP2 DUP5 PUSH1 0x1 DUP4 MUL DUP5 ADD GT PUSH5 0x100000000 DUP4 GT OR ISZERO PUSH2 0x4E4 JUMPI PUSH1 0x0 DUP1 REVERT JUMPDEST SWAP2 SWAP1 DUP1 DUP1 PUSH1 0x1F ADD PUSH1 0x20 DUP1 SWAP2 DIV MUL PUSH1 0x20 ADD PUSH1 0x40 MLOAD SWAP1 DUP2 ADD PUSH1 0x40 MSTORE DUP1 SWAP4 SWAP3 SWAP2 SWAP1 DUP2 DUP2 MSTORE PUSH1 0x20 ADD DUP4 DUP4 DUP1 DUP3 DUP5 CALLDATACOPY PUSH1 0x0 SWAP3 ADD SWAP2 SWAP1 SWAP2 MSTORE POP SWAP3 SWAP6 POP PUSH2 0x163C SWAP5 POP POP POP POP POP JUMP JUMPDEST PUSH2 0x1FC PUSH1 0x4 DUP1 CALLDATASIZE SUB PUSH1 0x20 DUP2 LT ISZERO PUSH2 0x53B JUMPI PUSH1 0x0 DUP1 REVERT JUMPDEST POP CALLDATALOAD PUSH1 0x1 PUSH1 0x1 PUSH1 0xA0 SHL SUB AND PUSH2 0x165A JUMP JUMPDEST PUSH2 0x23A PUSH2 0x1675 JUMP JUMPDEST PUSH2 0x23A PUSH1 0x4 DUP1 CALLDATASIZE SUB PUSH1 0x20 DUP2 LT ISZERO PUSH2 0x569 JUMPI PUSH1 0x0 DUP1 REVERT JUMPDEST POP CALLDATALOAD PUSH1 0x1 PUSH1 0x1 PUSH1 0xA0 SHL SUB AND PUSH2 0x16F0 JUMP JUMPDEST PUSH2 0x216 PUSH2 0x177C JUMP JUMPDEST PUSH2 0x216 PUSH2 0x17A0 JUMP JUMPDEST PUSH1 0x0 DUP2 DUP2 MSTORE PUSH1 0x1C PUSH1 0x20 MSTORE PUSH1 0x40 SWAP1 KECCAK256 SLOAD JUMPDEST SWAP2 SWAP1 POP JUMP JUMPDEST PUSH1 0x1F SLOAD PUSH1 0x1 PUSH1 0x1 PUSH1 0xA0 SHL SUB AND DUP2 JUMP JUMPDEST PUSH1 0x10 SLOAD PUSH1 0x1 PUSH1 0x1 PUSH1 0xA0 SHL SUB AND CALLER EQ PUSH2 0x5C4 JUMPI PUSH1 0x0 DUP1 REVERT JUMPDEST PUSH1 0x0 PUSH32 0x0 PUSH1 0x1 PUSH1 0x1 PUSH1 0xA0 SHL SUB AND PUSH4 0x70A08231 ADDRESS PUSH1 0x40 MLOAD DUP3 PUSH4 0xFFFFFFFF AND PUSH1 0xE0 SHL DUP2 MSTORE PUSH1 0x4 ADD DUP1 DUP3 PUSH1 0x1 PUSH1 0x1 PUSH1 0xA0 SHL SUB AND DUP2 MSTORE PUSH1 0x20 ADD SWAP2 POP POP PUSH1 0x20 PUSH1 0x40 MLOAD DUP1 DUP4 SUB DUP2 DUP7 DUP1 EXTCODESIZE ISZERO DUP1 ISZERO PUSH2 0x633 JUMPI PUSH1 0x0 DUP1 REVERT JUMPDEST POP GAS STATICCALL ISZERO DUP1 ISZERO PUSH2 0x647 JUMPI RETURNDATASIZE PUSH1 0x0 DUP1 RETURNDATACOPY RETURNDATASIZE PUSH1 0x0 REVERT JUMPDEST POP POP POP POP PUSH1 0x40 MLOAD RETURNDATASIZE PUSH1 0x20 DUP2 LT ISZERO PUSH2 0x65D JUMPI PUSH1 0x0 DUP1 REVERT JUMPDEST POP MLOAD GT ISZERO PUSH2 0x78A JUMPI PUSH1 0x10 SLOAD PUSH1 0x40 DUP1 MLOAD PUSH4 0x70A08231 PUSH1 0xE0 SHL DUP2 MSTORE ADDRESS PUSH1 0x4 DUP3 ADD MSTORE SWAP1 MLOAD PUSH1 0x1 PUSH1 0x1 PUSH1 0xA0 SHL SUB PUSH32 0x0 DUP2 AND SWAP4 PUSH4 0xA9059CBB SWAP4 SWAP2 AND SWAP2 DUP5 SWAP2 PUSH4 0x70A08231 SWAP2 PUSH1 0x24 DUP1 DUP4 ADD SWAP3 PUSH1 0x20 SWAP3 SWAP2 SWAP1 DUP3 SWAP1 SUB ADD DUP2 DUP7 DUP1 EXTCODESIZE ISZERO DUP1 ISZERO PUSH2 0x6DA JUMPI PUSH1 0x0 DUP1 REVERT JUMPDEST POP GAS STATICCALL ISZERO DUP1 ISZERO PUSH2 0x6EE JUMPI RETURNDATASIZE PUSH1 0x0 DUP1 RETURNDATACOPY RETURNDATASIZE PUSH1 0x0 REVERT JUMPDEST POP POP POP POP PUSH1 0x40 MLOAD RETURNDATASIZE PUSH1 0x20 DUP2 LT ISZERO PUSH2 0x704 JUMPI PUSH1 0x0 DUP1 REVERT JUMPDEST POP MLOAD PUSH1 0x40 DUP1 MLOAD PUSH1 0x1 PUSH1 0x1 PUSH1 0xE0 SHL SUB NOT PUSH1 0xE0 DUP7 SWAP1 SHL AND DUP2 MSTORE PUSH1 0x1 PUSH1 0x1 PUSH1 0xA0 SHL SUB SWAP1 SWAP4 AND PUSH1 0x4 DUP5 ADD MSTORE PUSH1 0x24 DUP4 ADD SWAP2 SWAP1 SWAP2 MSTORE MLOAD PUSH1 0x44 DUP1 DUP4 ADD SWAP3 PUSH1 0x20 SWAP3 SWAP2 SWAP1 DUP3 SWAP1 SUB ADD DUP2 PUSH1 0x0 DUP8 DUP1 EXTCODESIZE ISZERO DUP1 ISZERO PUSH2 0x755 JUMPI PUSH1 0x0 DUP1 REVERT JUMPDEST POP GAS CALL ISZERO DUP1 ISZERO PUSH2 0x769 JUMPI RETURNDATASIZE PUSH1 0x0 DUP1 RETURNDATACOPY RETURNDATASIZE PUSH1 0x0 REVERT JUMPDEST POP POP POP POP PUSH1 0x40 MLOAD RETURNDATASIZE PUSH1 0x20 DUP2 LT ISZERO PUSH2 0x77F JUMPI PUSH1 0x0 DUP1 REVERT JUMPDEST POP MLOAD PUSH2 0x78A JUMPI PUSH1 0x0 DUP1 REVERT JUMPDEST PUSH1 0x0 PUSH32 0x0 PUSH1 0x1 PUSH1 0x1 PUSH1 0xA0 SHL SUB AND PUSH4 0x70A08231 ADDRESS PUSH1 0x40 MLOAD DUP3 PUSH4 0xFFFFFFFF AND PUSH1 0xE0 SHL DUP2 MSTORE PUSH1 0x4 ADD DUP1 DUP3 PUSH1 0x1 PUSH1 0x1 PUSH1 0xA0 SHL SUB AND DUP2 MSTORE PUSH1 0x20 ADD SWAP2 POP POP PUSH1 0x20 PUSH1 0x40 MLOAD DUP1 DUP4 SUB DUP2 DUP7 DUP1 EXTCODESIZE ISZERO DUP1 ISZERO PUSH2 0x7F9 JUMPI PUSH1 0x0 DUP1 REVERT JUMPDEST POP GAS STATICCALL ISZERO DUP1 ISZERO PUSH2 0x80D JUMPI RETURNDATASIZE PUSH1 0x0 DUP1 RETURNDATACOPY RETURNDATASIZE PUSH1 0x0 REVERT JUMPDEST POP POP POP POP PUSH1 0x40 MLOAD RETURNDATASIZE PUSH1 0x20 DUP2 LT ISZERO PUSH2 0x823 JUMPI PUSH1 0x0 DUP1 REVERT JUMPDEST POP MLOAD GT ISZERO PUSH2 0x950 JUMPI PUSH1 0x10 SLOAD PUSH1 0x40 DUP1 MLOAD PUSH4 0x70A08231 PUSH1 0xE0 SHL DUP2 MSTORE ADDRESS PUSH1 0x4 DUP3 ADD MSTORE SWAP1 MLOAD PUSH1 0x1 PUSH1 0x1 PUSH1 0xA0 SHL SUB PUSH32 0x0 DUP2 AND SWAP4 PUSH4 0xA9059CBB SWAP4 SWAP2 AND SWAP2 DUP5 SWAP2 PUSH4 0x70A08231 SWAP2 PUSH1 0x24 DUP1 DUP4 ADD SWAP3 PUSH1 0x20 SWAP3 SWAP2 SWAP1 DUP3 SWAP1 SUB ADD DUP2 DUP7 DUP1 EXTCODESIZE ISZERO DUP1 ISZERO PUSH2 0x8A0 JUMPI PUSH1 0x0 DUP1 REVERT JUMPDEST POP GAS STATICCALL ISZERO DUP1 ISZERO PUSH2 0x8B4 JUMPI RETURNDATASIZE PUSH1 0x0 DUP1 RETURNDATACOPY RETURNDATASIZE PUSH1 0x0 REVERT JUMPDEST POP POP POP POP PUSH1 0x40 MLOAD RETURNDATASIZE PUSH1 0x20 DUP2 LT ISZERO PUSH2 0x8CA JUMPI PUSH1 0x0 DUP1 REVERT JUMPDEST POP MLOAD PUSH1 0x40 DUP1 MLOAD PUSH1 0x1 PUSH1 0x1 PUSH1 0xE0 SHL SUB NOT PUSH1 0xE0 DUP7 SWAP1 SHL AND DUP2 MSTORE PUSH1 0x1 PUSH1 0x1 PUSH1 0xA0 SHL SUB SWAP1 SWAP4 AND PUSH1 0x4 DUP5 ADD MSTORE PUSH1 0x24 DUP4 ADD SWAP2 SWAP1 SWAP2 MSTORE MLOAD PUSH1 0x44 DUP1 DUP4 ADD SWAP3 PUSH1 0x20 SWAP3 SWAP2 SWAP1 DUP3 SWAP1 SUB ADD DUP2 PUSH1 0x0 DUP8 DUP1 EXTCODESIZE ISZERO DUP1 ISZERO PUSH2 0x91B JUMPI PUSH1 0x0 DUP1 REVERT JUMPDEST POP GAS CALL ISZERO DUP1 ISZERO PUSH2 0x92F JUMPI RETURNDATASIZE PUSH1 0x0 DUP1 RETURNDATACOPY RETURNDATASIZE PUSH1 0x0 REVERT JUMPDEST POP POP POP POP PUSH1 0x40 MLOAD RETURNDATASIZE PUSH1 0x20 DUP2 LT ISZERO PUSH2 0x945 JUMPI PUSH1 0x0 DUP1 REVERT JUMPDEST POP MLOAD PUSH2 0x950 JUMPI PUSH1 0x0 DUP1 REVERT JUMPDEST PUSH1 0x0 PUSH2 0x95A PUSH2 0x17C4 JUMP JUMPDEST SWAP1 POP PUSH1 0x0 DUP2 PUSH1 0x1 PUSH1 0x1 PUSH1 0xA0 SHL SUB AND PUSH4 0x70A08231 ADDRESS PUSH1 0x40 MLOAD DUP3 PUSH4 0xFFFFFFFF AND PUSH1 0xE0 SHL DUP2 MSTORE PUSH1 0x4 ADD DUP1 DUP3 PUSH1 0x1 PUSH1 0x1 PUSH1 0xA0 SHL SUB AND DUP2 MSTORE PUSH1 0x20 ADD SWAP2 POP POP PUSH1 0x20 PUSH1 0x40 MLOAD DUP1 DUP4 SUB DUP2 DUP7 DUP1 EXTCODESIZE ISZERO DUP1 ISZERO PUSH2 0x9AB JUMPI PUSH1 0x0 DUP1 REVERT JUMPDEST POP GAS STATICCALL ISZERO DUP1 ISZERO PUSH2 0x9BF JUMPI RETURNDATASIZE PUSH1 0x0 DUP1 RETURNDATACOPY RETURNDATASIZE PUSH1 0x0 REVERT JUMPDEST POP POP POP POP PUSH1 0x40 MLOAD RETURNDATASIZE PUSH1 0x20 DUP2 LT ISZERO PUSH2 0x9D5 JUMPI PUSH1 0x0 DUP1 REVERT JUMPDEST POP MLOAD GT ISZERO PUSH2 0xB1F JUMPI PUSH1 0x10 SLOAD PUSH1 0x40 DUP1 MLOAD PUSH4 0x70A08231 PUSH1 0xE0 SHL DUP2 MSTORE ADDRESS PUSH1 0x4 DUP3 ADD MSTORE SWAP1 MLOAD PUSH1 0x1 PUSH1 0x1 PUSH1 0xA0 SHL SUB DUP1 DUP6 AND SWAP4 PUSH4 0xA9059CBB SWAP4 SWAP2 AND SWAP2 DUP5 SWAP2 PUSH4 0x70A08231 SWAP2 PUSH1 0x24 DUP1 DUP4 ADD SWAP3 PUSH1 0x20 SWAP3 SWAP2 SWAP1 DUP3 SWAP1 SUB ADD DUP2 DUP7 DUP1 EXTCODESIZE ISZERO DUP1 ISZERO PUSH2 0xA32 JUMPI PUSH1 0x0 DUP1 REVERT JUMPDEST POP GAS STATICCALL ISZERO DUP1 ISZERO PUSH2 0xA46 JUMPI RETURNDATASIZE PUSH1 0x0 DUP1 RETURNDATACOPY RETURNDATASIZE PUSH1 0x0 REVERT JUMPDEST POP POP POP POP PUSH1 0x40 MLOAD RETURNDATASIZE PUSH1 0x20 DUP2 LT ISZERO PUSH2 0xA5C JUMPI PUSH1 0x0 DUP1 REVERT JUMPDEST POP MLOAD PUSH1 0x40 DUP1 MLOAD PUSH1 0x1 PUSH1 0x1 PUSH1 0xE0 SHL SUB NOT PUSH1 0xE0 DUP7 SWAP1 SHL AND DUP2 MSTORE PUSH1 0x1 PUSH1 0x1 PUSH1 0xA0 SHL SUB SWAP1 SWAP4 AND PUSH1 0x4 DUP5 ADD MSTORE PUSH1 0x24 DUP4 ADD SWAP2 SWAP1 SWAP2 MSTORE MLOAD PUSH1 0x44 DUP1 DUP4 ADD SWAP3 PUSH1 0x20 SWAP3 SWAP2 SWAP1 DUP3 SWAP1 SUB ADD DUP2 PUSH1 0x0 DUP8 DUP1 EXTCODESIZE ISZERO DUP1 ISZERO PUSH2 0xAAD JUMPI PUSH1 0x0 DUP1 REVERT JUMPDEST POP GAS CALL ISZERO DUP1 ISZERO PUSH2 0xAC1 JUMPI RETURNDATASIZE PUSH1 0x0 DUP1 RETURNDATACOPY RETURNDATASIZE PUSH1 0x0 REVERT JUMPDEST POP POP POP POP PUSH1 0x40 MLOAD RETURNDATASIZE PUSH1 0x20 DUP2 LT ISZERO PUSH2 0xAD7 JUMPI PUSH1 0x0 DUP1 REVERT JUMPDEST POP MLOAD PUSH2 0xB1F JUMPI PUSH1 0x40 DUP1 MLOAD PUSH3 0x461BCD PUSH1 0xE5 SHL DUP2 MSTORE PUSH1 0x20 PUSH1 0x4 DUP3 ADD MSTORE PUSH1 0x12 PUSH1 0x24 DUP3 ADD MSTORE PUSH18 0x2AB730B13632903A37903A3930B739B332B9 PUSH1 0x71 SHL PUSH1 0x44 DUP3 ADD MSTORE SWAP1 MLOAD SWAP1 DUP2 SWAP1 SUB PUSH1 0x64 ADD SWAP1 REVERT JUMPDEST POP JUMP JUMPDEST PUSH1 0x13 SLOAD PUSH1 0x1 PUSH1 0x1 PUSH1 0xA0 SHL SUB AND DUP2 JUMP JUMPDEST PUSH1 0x10 SLOAD PUSH1 0x1 PUSH1 0x1 PUSH1 0xA0 SHL SUB AND CALLER EQ PUSH2 0xB48 JUMPI PUSH1 0x0 DUP1 REVERT JUMPDEST PUSH1 0x0 PUSH32 0x0 PUSH1 0x1 PUSH1 0x1 PUSH1 0xA0 SHL SUB AND PUSH4 0x70A08231 ADDRESS PUSH1 0x40 MLOAD DUP3 PUSH4 0xFFFFFFFF AND PUSH1 0xE0 SHL DUP2 MSTORE PUSH1 0x4 ADD DUP1 DUP3 PUSH1 0x1 PUSH1 0x1 PUSH1 0xA0 SHL SUB AND DUP2 MSTORE PUSH1 0x20 ADD SWAP2 POP POP PUSH1 0x20 PUSH1 0x40 MLOAD DUP1 DUP4 SUB DUP2 DUP7 DUP1 EXTCODESIZE ISZERO DUP1 ISZERO PUSH2 0xBB7 JUMPI PUSH1 0x0 DUP1 REVERT JUMPDEST POP GAS STATICCALL ISZERO DUP1 ISZERO PUSH2 0xBCB JUMPI RETURNDATASIZE PUSH1 0x0 DUP1 RETURNDATACOPY RETURNDATASIZE PUSH1 0x0 REVERT JUMPDEST POP POP POP POP PUSH1 0x40 MLOAD RETURNDATASIZE PUSH1 0x20 DUP2 LT ISZERO PUSH2 0xBE1 JUMPI PUSH1 0x0 DUP1 REVERT JUMPDEST POP MLOAD PUSH1 0xB SLOAD PUSH1 0x40 DUP1 MLOAD PUSH4 0x70A08231 PUSH1 0xE0 SHL DUP2 MSTORE ADDRESS PUSH1 0x4 DUP3 ADD MSTORE SWAP1 MLOAD SWAP3 SWAP4 POP SWAP1 DUP4 SUB SWAP2 DUP3 SWAP2 PUSH1 0x1 PUSH1 0x1 PUSH1 0xA0 SHL SUB PUSH32 0x0 AND SWAP2 PUSH4 0x70A08231 SWAP2 PUSH1 0x24 DUP1 DUP3 ADD SWAP3 PUSH1 0x20 SWAP3 SWAP1 SWAP2 SWAP1 DUP3 SWAP1 SUB ADD DUP2 DUP7 DUP1 EXTCODESIZE ISZERO DUP1 ISZERO PUSH2 0xC56 JUMPI PUSH1 0x0 DUP1 REVERT JUMPDEST POP GAS STATICCALL ISZERO DUP1 ISZERO PUSH2 0xC6A JUMPI RETURNDATASIZE PUSH1 0x0 DUP1 RETURNDATACOPY RETURNDATASIZE PUSH1 0x0 REVERT JUMPDEST POP POP POP POP PUSH1 0x40 MLOAD RETURNDATASIZE PUSH1 0x20 DUP2 LT ISZERO PUSH2 0xC80 JUMPI PUSH1 0x0 DUP1 REVERT JUMPDEST POP MLOAD LT ISZERO PUSH2 0xD2B JUMPI PUSH2 0xD2B PUSH32 0x0 PUSH1 0x1 PUSH1 0x1 PUSH1 0xA0 SHL SUB AND PUSH4 0x70A08231 ADDRESS PUSH1 0x40 MLOAD DUP3 PUSH4 0xFFFFFFFF AND PUSH1 0xE0 SHL DUP2 MSTORE PUSH1 0x4 ADD DUP1 DUP3 PUSH1 0x1 PUSH1 0x1 PUSH1 0xA0 SHL SUB AND DUP2 MSTORE PUSH1 0x20 ADD SWAP2 POP POP PUSH1 0x20 PUSH1 0x40 MLOAD DUP1 DUP4 SUB DUP2 DUP7 DUP1 EXTCODESIZE ISZERO DUP1 ISZERO PUSH2 0xCF8 JUMPI PUSH1 0x0 DUP1 REVERT JUMPDEST POP GAS STATICCALL ISZERO DUP1 ISZERO PUSH2 0xD0C JUMPI RETURNDATASIZE PUSH1 0x0 DUP1 RETURNDATACOPY RETURNDATASIZE PUSH1 0x0 REVERT JUMPDEST POP POP POP POP PUSH1 0x40 MLOAD RETURNDATASIZE PUSH1 0x20 DUP2 LT ISZERO PUSH2 0xD22 JUMPI PUSH1 0x0 DUP1 REVERT JUMPDEST POP MLOAD DUP3 SUB PUSH2 0x17D3 JUMP JUMPDEST PUSH1 0x10 SLOAD PUSH1 0x40 DUP1 MLOAD PUSH4 0xA9059CBB PUSH1 0xE0 SHL DUP2 MSTORE PUSH1 0x1 PUSH1 0x1 PUSH1 0xA0 SHL SUB SWAP3 DUP4 AND PUSH1 0x4 DUP3 ADD MSTORE PUSH1 0x24 DUP2 ADD DUP5 SWAP1 MSTORE SWAP1 MLOAD PUSH32 0x0 SWAP1 SWAP3 AND SWAP2 PUSH4 0xA9059CBB SWAP2 PUSH1 0x44 DUP1 DUP3 ADD SWAP3 PUSH1 0x20 SWAP3 SWAP1 SWAP2 SWAP1 DUP3 SWAP1 SUB ADD DUP2 PUSH1 0x0 DUP8 DUP1 EXTCODESIZE ISZERO DUP1 ISZERO PUSH2 0xDA2 JUMPI PUSH1 0x0 DUP1 REVERT JUMPDEST POP GAS CALL ISZERO DUP1 ISZERO PUSH2 0xDB6 JUMPI RETURNDATASIZE PUSH1 0x0 DUP1 RETURNDATACOPY RETURNDATASIZE PUSH1 0x0 REVERT JUMPDEST POP POP POP POP PUSH1 0x40 MLOAD RETURNDATASIZE PUSH1 0x20 DUP2 LT ISZERO PUSH2 0xDCC JUMPI PUSH1 0x0 DUP1 REVERT JUMPDEST POP MLOAD PUSH2 0xDD7 JUMPI PUSH1 0x0 DUP1 REVERT JUMPDEST POP POP JUMP JUMPDEST PUSH1 0x12 SLOAD PUSH1 0x1 PUSH1 0x1 PUSH1 0xA0 SHL SUB AND DUP2 JUMP JUMPDEST PUSH1 0xB SLOAD SWAP1 JUMP JUMPDEST PUSH1 0xF SLOAD DUP2 JUMP JUMPDEST PUSH1 0x0 DUP3 DUP2 MSTORE PUSH1 0x5 PUSH1 0x20 MSTORE PUSH1 0x40 SWAP1 KECCAK256 SLOAD DUP3 SWAP1 PUSH1 0x1 PUSH1 0x1 PUSH1 0xA0 SHL SUB AND CALLER EQ PUSH2 0xE4D JUMPI PUSH1 0x40 MLOAD PUSH3 0x461BCD PUSH1 0xE5 SHL DUP2 MSTORE PUSH1 0x4 ADD DUP1 DUP1 PUSH1 0x20 ADD DUP3 DUP2 SUB DUP3 MSTORE PUSH1 0x28 DUP2 MSTORE PUSH1 0x20 ADD DUP1 PUSH2 0x2675 PUSH1 0x28 SWAP2 CODECOPY PUSH1 0x40 ADD SWAP2 POP POP PUSH1 0x40 MLOAD DUP1 SWAP2 SUB SWAP1 REVERT JUMPDEST PUSH1 0x0 DUP2 DUP2 MSTORE PUSH1 0x5 PUSH1 0x20 MSTORE PUSH1 0x40 DUP1 DUP3 KECCAK256 DUP1 SLOAD PUSH1 0x1 PUSH1 0x1 PUSH1 0xA0 SHL SUB NOT AND SWAP1 SSTORE MLOAD DUP3 SWAP2 PUSH32 0x7CC135E0CEBB02C3480AE5D74D377283180A2601F8F644EDF7987B009316C63A SWAP2 LOG2 PUSH1 0x8 SLOAD DUP3 SWAP1 PUSH1 0xC SWAP1 PUSH2 0xFFFF AND PUSH1 0x3 DUP2 LT PUSH2 0xEA6 JUMPI INVALID JUMPDEST ADD SSTORE PUSH1 0x8 DUP1 SLOAD PUSH2 0xFFFF DUP1 DUP3 AND PUSH1 0x1 ADD AND PUSH2 0xFFFF NOT SWAP1 SWAP2 AND OR SWAP1 SSTORE PUSH1 0x3 PUSH1 0x64 PUSH1 0xC PUSH1 0x2 ADD SLOAD PUSH1 0xA SLOAD PUSH5 0x100000000 SWAP1 DIV PUSH2 0xFFFF AND MUL DUP2 PUSH2 0xEE1 JUMPI INVALID JUMPDEST DIV PUSH1 0x64 PUSH1 0xC PUSH1 0x1 ADD SLOAD PUSH1 0xA SLOAD PUSH3 0x10000 SWAP1 DIV PUSH2 0xFFFF AND MUL DUP2 PUSH2 0xEFF JUMPI INVALID JUMPDEST DIV PUSH1 0x64 PUSH1 0xC PUSH1 0x0 ADD SLOAD PUSH1 0xA SLOAD PUSH2 0xFFFF AND MUL DUP2 PUSH2 0xF17 JUMPI INVALID JUMPDEST DIV ADD ADD DUP2 PUSH2 0xF21 JUMPI INVALID JUMPDEST DIV PUSH1 0x9 SSTORE POP POP POP JUMP JUMPDEST PUSH1 0x11 SLOAD PUSH1 0x1 PUSH1 0x1 PUSH1 0xA0 SHL SUB AND DUP2 JUMP JUMPDEST PUSH1 0x6 SLOAD PUSH1 0xFF AND DUP2 JUMP JUMPDEST PUSH1 0x14 SLOAD PUSH1 0x1 PUSH1 0x1 PUSH1 0xA0 SHL SUB AND DUP2 JUMP JUMPDEST PUSH1 0x15 DUP2 PUSH1 0x3 DUP2 LT PUSH2 0xF5E JUMPI INVALID JUMPDEST ADD DUP1 SLOAD PUSH1 0x40 DUP1 MLOAD PUSH1 0x20 PUSH1 0x1F PUSH1 0x2 PUSH1 0x0 NOT PUSH2 0x100 PUSH1 0x1 DUP9 AND ISZERO MUL ADD SWAP1 SWAP6 AND SWAP5 SWAP1 SWAP5 DIV SWAP4 DUP5 ADD DUP2 SWAP1 DIV DUP2 MUL DUP3 ADD DUP2 ADD SWAP1 SWAP3 MSTORE DUP3 DUP2 MSTORE SWAP4 POP DUP4 ADD DUP3 DUP3 DUP1 ISZERO PUSH2 0xFE4 JUMPI DUP1 PUSH1 0x1F LT PUSH2 0xFB9 JUMPI PUSH2 0x100 DUP1 DUP4 SLOAD DIV MUL DUP4 MSTORE SWAP2 PUSH1 0x20 ADD SWAP2 PUSH2 0xFE4 JUMP JUMPDEST DUP3 ADD SWAP2 SWAP1 PUSH1 0x0 MSTORE PUSH1 0x20 PUSH1 0x0 KECCAK256 SWAP1 JUMPDEST DUP2 SLOAD DUP2 MSTORE SWAP1 PUSH1 0x1 ADD SWAP1 PUSH1 0x20 ADD DUP1 DUP4 GT PUSH2 0xFC7 JUMPI DUP3 SWAP1 SUB PUSH1 0x1F AND DUP3 ADD SWAP2 JUMPDEST POP POP POP POP POP DUP2 JUMP JUMPDEST PUSH1 0xB SLOAD DUP2 JUMP JUMPDEST PUSH1 0x10 SLOAD PUSH1 0x1 PUSH1 0x1 PUSH1 0xA0 SHL SUB AND CALLER EQ PUSH2 0x1009 JUMPI PUSH1 0x0 DUP1 REVERT JUMPDEST PUSH1 0x6 DUP1 SLOAD PUSH1 0xFF NOT AND SWAP2 ISZERO ISZERO SWAP2 SWAP1 SWAP2 OR SWAP1 SSTORE JUMP JUMPDEST PUSH1 0x9 SLOAD SWAP1 JUMP JUMPDEST PUSH1 0x6 SLOAD PUSH1 0xFF AND ISZERO PUSH2 0x106F JUMPI PUSH1 0x40 DUP1 MLOAD PUSH3 0x461BCD PUSH1 0xE5 SHL DUP2 MSTORE PUSH1 0x20 PUSH1 0x4 DUP3 ADD MSTORE PUSH1 0x12 PUSH1 0x24 DUP3 ADD MSTORE PUSH18 0x10DBDB9D1C9858DD081A5CC81C185D5CD959 PUSH1 0x72 SHL PUSH1 0x44 DUP3 ADD MSTORE SWAP1 MLOAD SWAP1 DUP2 SWAP1 SUB PUSH1 0x64 ADD SWAP1 REVERT JUMPDEST PUSH1 0x1 PUSH1 0x1 PUSH1 0xA0 SHL SUB DUP4 AND PUSH1 0x0 SWAP1 DUP2 MSTORE PUSH1 0x18 PUSH1 0x20 MSTORE PUSH1 0x40 DUP2 KECCAK256 SLOAD SGT ISZERO PUSH2 0x10DB JUMPI PUSH1 0x40 DUP1 MLOAD PUSH3 0x461BCD PUSH1 0xE5 SHL DUP2 MSTORE PUSH1 0x20 PUSH1 0x4 DUP3 ADD MSTORE PUSH1 0x17 PUSH1 0x24 DUP3 ADD MSTORE PUSH32 0x637573746F6D657220616C726561647920657869737473000000000000000000 PUSH1 0x44 DUP3 ADD MSTORE SWAP1 MLOAD SWAP1 DUP2 SWAP1 SUB PUSH1 0x64 ADD SWAP1 REVERT JUMPDEST PUSH1 0xB DUP1 SLOAD DUP3 ADD SWAP1 SSTORE PUSH1 0x7 DUP1 SLOAD PUSH1 0x1 PUSH1 0x1 PUSH1 0xA0 SHL SUB DUP1 DUP7 AND PUSH1 0x0 SWAP1 DUP2 MSTORE PUSH1 0x18 PUSH1 0x20 SWAP1 DUP2 MSTORE PUSH1 0x40 DUP1 DUP4 KECCAK256 DUP6 SWAP1 SSTORE DUP8 DUP5 AND DUP1 DUP5 MSTORE PUSH1 0x19 DUP4 MSTORE DUP2 DUP5 KECCAK256 DUP7 SWAP1 SSTORE SWAP5 DUP4 MSTORE PUSH1 0x1C DUP3 MSTORE DUP1 DUP4 KECCAK256 DUP8 SWAP1 SSTORE SWAP5 SLOAD DUP3 MSTORE PUSH1 0x1A DUP2 MSTORE DUP5 DUP3 KECCAK256 DUP1 SLOAD PUSH1 0x1 PUSH1 0x1 PUSH1 0xA0 SHL SUB NOT AND DUP6 OR SWAP1 SSTORE DUP5 MLOAD PUSH4 0x23B872DD PUSH1 0xE0 SHL DUP2 MSTORE PUSH1 0x4 DUP2 ADD SWAP5 SWAP1 SWAP5 MSTORE ADDRESS PUSH1 0x24 DUP6 ADD MSTORE PUSH1 0x44 DUP5 ADD DUP7 SWAP1 MSTORE SWAP4 MLOAD PUSH32 0x0 SWAP1 SWAP3 AND SWAP4 PUSH4 0x23B872DD SWAP4 PUSH1 0x64 DUP1 DUP3 ADD SWAP5 SWAP3 SWAP4 SWAP2 DUP4 SWAP1 SUB ADD SWAP1 DUP3 SWAP1 DUP8 DUP1 EXTCODESIZE ISZERO DUP1 ISZERO PUSH2 0x11AB JUMPI PUSH1 0x0 DUP1 REVERT JUMPDEST POP GAS CALL ISZERO DUP1 ISZERO PUSH2 0x11BF JUMPI RETURNDATASIZE PUSH1 0x0 DUP1 RETURNDATACOPY RETURNDATASIZE PUSH1 0x0 REVERT JUMPDEST POP POP POP POP PUSH1 0x40 MLOAD RETURNDATASIZE PUSH1 0x20 DUP2 LT ISZERO PUSH2 0x11D5 JUMPI PUSH1 0x0 DUP1 REVERT JUMPDEST POP MLOAD PUSH2 0x11E0 JUMPI PUSH1 0x0 DUP1 REVERT JUMPDEST PUSH2 0x11E8 PUSH2 0x199F JUMP JUMPDEST POP POP PUSH1 0x7 DUP1 SLOAD PUSH1 0x1 ADD SWAP1 SSTORE POP JUMP JUMPDEST PUSH1 0x6 SLOAD PUSH1 0xFF AND ISZERO PUSH2 0x1243 JUMPI PUSH1 0x40 DUP1 MLOAD PUSH3 0x461BCD PUSH1 0xE5 SHL DUP2 MSTORE PUSH1 0x20 PUSH1 0x4 DUP3 ADD MSTORE PUSH1 0x12 PUSH1 0x24 DUP3 ADD MSTORE PUSH18 0x10DBDB9D1C9858DD081A5CC81C185D5CD959 PUSH1 0x72 SHL PUSH1 0x44 DUP3 ADD MSTORE SWAP1 MLOAD SWAP1 DUP2 SWAP1 SUB PUSH1 0x64 ADD SWAP1 REVERT JUMPDEST PUSH1 0x1 PUSH1 0x1 PUSH1 0xA0 SHL SUB DUP1 DUP3 AND PUSH1 0x0 SWAP1 DUP2 MSTORE PUSH1 0x18 PUSH1 0x20 SWAP1 DUP2 MSTORE PUSH1 0x40 DUP1 DUP4 KECCAK256 SLOAD DUP1 DUP5 MSTORE PUSH1 0x1C DUP4 MSTORE DUP2 DUP5 KECCAK256 SLOAD PUSH1 0x1B DUP5 MSTORE DUP3 DUP6 KECCAK256 SLOAD PUSH1 0x1A DUP6 MSTORE DUP4 DUP7 KECCAK256 SLOAD PUSH1 0x1D SWAP1 SWAP6 MSTORE SWAP3 SWAP1 SWAP5 KECCAK256 SLOAD SWAP1 SWAP5 SWAP2 SWAP3 SWAP1 SWAP2 AND SWAP1 PUSH2 0x1296 DUP5 PUSH2 0x17D3 JUMP JUMPDEST PUSH1 0x0 DUP6 DUP2 MSTORE PUSH1 0x1C PUSH1 0x20 SWAP1 DUP2 MSTORE PUSH1 0x40 DUP1 DUP4 KECCAK256 DUP1 SLOAD PUSH1 0xB DUP1 SLOAD SWAP2 SWAP1 SWAP2 SUB SWAP1 SSTORE DUP4 SWAP1 SSTORE PUSH1 0x1 PUSH1 0x1 PUSH1 0xA0 SHL SUB DUP10 AND DUP4 MSTORE PUSH1 0x18 SWAP1 SWAP2 MSTORE DUP2 KECCAK256 SSTORE DUP3 DUP2 GT ISZERO PUSH2 0x1383 JUMPI PUSH32 0x0 PUSH1 0x1 PUSH1 0x1 PUSH1 0xA0 SHL SUB AND PUSH4 0xA9059CBB DUP8 DUP7 PUSH1 0x40 MLOAD DUP4 PUSH4 0xFFFFFFFF AND PUSH1 0xE0 SHL DUP2 MSTORE PUSH1 0x4 ADD DUP1 DUP4 PUSH1 0x1 PUSH1 0x1 PUSH1 0xA0 SHL SUB AND DUP2 MSTORE PUSH1 0x20 ADD DUP3 DUP2 MSTORE PUSH1 0x20 ADD SWAP3 POP POP POP PUSH1 0x20 PUSH1 0x40 MLOAD DUP1 DUP4 SUB DUP2 PUSH1 0x0 DUP8 DUP1 EXTCODESIZE ISZERO DUP1 ISZERO PUSH2 0x1349 JUMPI PUSH1 0x0 DUP1 REVERT JUMPDEST POP GAS CALL ISZERO DUP1 ISZERO PUSH2 0x135D JUMPI RETURNDATASIZE PUSH1 0x0 DUP1 RETURNDATACOPY RETURNDATASIZE PUSH1 0x0 REVERT JUMPDEST POP POP POP POP PUSH1 0x40 MLOAD RETURNDATASIZE PUSH1 0x20 DUP2 LT ISZERO PUSH2 0x1373 JUMPI PUSH1 0x0 DUP1 REVERT JUMPDEST POP MLOAD PUSH2 0x137E JUMPI PUSH1 0x0 DUP1 REVERT JUMPDEST PUSH2 0x142F JUMP JUMPDEST PUSH32 0x0 PUSH1 0x1 PUSH1 0x1 PUSH1 0xA0 SHL SUB AND PUSH4 0xA9059CBB DUP4 DUP7 PUSH1 0x40 MLOAD DUP4 PUSH4 0xFFFFFFFF AND PUSH1 0xE0 SHL DUP2 MSTORE PUSH1 0x4 ADD DUP1 DUP4 PUSH1 0x1 PUSH1 0x1 PUSH1 0xA0 SHL SUB AND DUP2 MSTORE PUSH1 0x20 ADD DUP3 DUP2 MSTORE PUSH1 0x20 ADD SWAP3 POP POP POP PUSH1 0x20 PUSH1 0x40 MLOAD DUP1 DUP4 SUB DUP2 PUSH1 0x0 DUP8 DUP1 EXTCODESIZE ISZERO DUP1 ISZERO PUSH2 0x13FA JUMPI PUSH1 0x0 DUP1 REVERT JUMPDEST POP GAS CALL ISZERO DUP1 ISZERO PUSH2 0x140E JUMPI RETURNDATASIZE PUSH1 0x0 DUP1 RETURNDATACOPY RETURNDATASIZE PUSH1 0x0 REVERT JUMPDEST POP POP POP POP PUSH1 0x40 MLOAD RETURNDATASIZE PUSH1 0x20 DUP2 LT ISZERO PUSH2 0x1424 JUMPI PUSH1 0x0 DUP1 REVERT JUMPDEST POP MLOAD PUSH2 0x142F JUMPI PUSH1 0x0 DUP1 REVERT JUMPDEST POP POP POP POP POP POP JUMP JUMPDEST PUSH1 0x1E SLOAD PUSH1 0x1 PUSH1 0x1 PUSH1 0xA0 SHL SUB AND DUP2 JUMP JUMPDEST PUSH1 0xC DUP2 PUSH1 0x3 DUP2 LT PUSH2 0x1453 JUMPI INVALID JUMPDEST ADD SLOAD SWAP1 POP DUP2 JUMP JUMPDEST PUSH1 0x1D PUSH1 0x20 MSTORE PUSH1 0x0 SWAP1 DUP2 MSTORE PUSH1 0x40 SWAP1 KECCAK256 SLOAD DUP2 JUMP JUMPDEST PUSH1 0x1 PUSH1 0x1 PUSH1 0xA0 SHL SUB AND PUSH1 0x0 SWAP1 DUP2 MSTORE PUSH1 0x19 PUSH1 0x20 MSTORE PUSH1 0x40 SWAP1 KECCAK256 SLOAD SWAP1 JUMP JUMPDEST PUSH1 0x0 DUP1 PUSH32 0x0 PUSH1 0x1 PUSH1 0x1 PUSH1 0xA0 SHL SUB AND PUSH4 0x70A08231 ADDRESS PUSH1 0x40 MLOAD DUP3 PUSH4 0xFFFFFFFF AND PUSH1 0xE0 SHL DUP2 MSTORE PUSH1 0x4 ADD DUP1 DUP3 PUSH1 0x1 PUSH1 0x1 PUSH1 0xA0 SHL SUB AND DUP2 MSTORE PUSH1 0x20 ADD SWAP2 POP POP PUSH1 0x20 PUSH1 0x40 MLOAD DUP1 DUP4 SUB DUP2 DUP7 DUP1 EXTCODESIZE ISZERO DUP1 ISZERO PUSH2 0x14F7 JUMPI PUSH1 0x0 DUP1 REVERT JUMPDEST POP GAS STATICCALL ISZERO DUP1 ISZERO PUSH2 0x150B JUMPI RETURNDATASIZE PUSH1 0x0 DUP1 RETURNDATACOPY RETURNDATASIZE PUSH1 0x0 REVERT JUMPDEST POP POP POP POP PUSH1 0x40 MLOAD RETURNDATASIZE PUSH1 0x20 DUP2 LT ISZERO PUSH2 0x1521 JUMPI PUSH1 0x0 DUP1 REVERT JUMPDEST POP MLOAD PUSH1 0x40 DUP1 MLOAD PUSH4 0x70A08231 PUSH1 0xE0 SHL DUP2 MSTORE ADDRESS PUSH1 0x4 DUP3 ADD MSTORE SWAP1 MLOAD SWAP2 SWAP4 POP PUSH1 0x1 PUSH1 0x1 PUSH1 0xA0 SHL SUB PUSH32 0x0 AND SWAP2 PUSH4 0x70A08231 SWAP2 PUSH1 0x24 DUP1 DUP3 ADD SWAP3 PUSH1 0x20 SWAP3 SWAP1 SWAP2 SWAP1 DUP3 SWAP1 SUB ADD DUP2 DUP7 DUP1 EXTCODESIZE ISZERO DUP1 ISZERO PUSH2 0x158D JUMPI PUSH1 0x0 DUP1 REVERT JUMPDEST POP GAS STATICCALL ISZERO DUP1 ISZERO PUSH2 0x15A1 JUMPI RETURNDATASIZE PUSH1 0x0 DUP1 RETURNDATACOPY RETURNDATASIZE PUSH1 0x0 REVERT JUMPDEST POP POP POP POP PUSH1 0x40 MLOAD RETURNDATASIZE PUSH1 0x20 DUP2 LT ISZERO PUSH2 0x15B7 JUMPI PUSH1 0x0 DUP1 REVERT JUMPDEST POP MLOAD SWAP2 SWAP3 SWAP1 POP JUMP JUMPDEST PUSH1 0x6 SLOAD PUSH1 0xFF AND ISZERO PUSH2 0x160C JUMPI PUSH1 0x40 DUP1 MLOAD PUSH3 0x461BCD PUSH1 0xE5 SHL DUP2 MSTORE PUSH1 0x20 PUSH1 0x4 DUP3 ADD MSTORE PUSH1 0x12 PUSH1 0x24 DUP3 ADD MSTORE PUSH18 0x10DBDB9D1C9858DD081A5CC81C185D5CD959 PUSH1 0x72 SHL PUSH1 0x44 DUP3 ADD MSTORE SWAP1 MLOAD SWAP1 DUP2 SWAP1 SUB PUSH1 0x64 ADD SWAP1 REVERT JUMPDEST PUSH1 0x1 PUSH1 0x1 PUSH1 0xA0 SHL SUB AND PUSH1 0x0 SWAP1 DUP2 MSTORE PUSH1 0x18 PUSH1 0x20 SWAP1 DUP2 MSTORE PUSH1 0x40 DUP1 DUP4 KECCAK256 SLOAD PUSH1 0x5 PUSH1 0x9 DUP2 SWAP1 SSTORE SWAP1 DUP5 MSTORE PUSH1 0x1B SWAP1 SWAP3 MSTORE SWAP1 SWAP2 KECCAK256 SSTORE JUMP JUMPDEST DUP1 MLOAD PUSH1 0x0 SWAP1 DUP3 SWAP1 PUSH2 0x1651 JUMPI POP PUSH1 0x0 SWAP1 POP PUSH2 0x599 JUMP JUMPDEST POP POP PUSH1 0x20 ADD MLOAD SWAP1 JUMP JUMPDEST PUSH1 0x1 PUSH1 0x1 PUSH1 0xA0 SHL SUB AND PUSH1 0x0 SWAP1 DUP2 MSTORE PUSH1 0x18 PUSH1 0x20 MSTORE PUSH1 0x40 SWAP1 KECCAK256 SLOAD SWAP1 JUMP JUMPDEST PUSH1 0x10 SLOAD PUSH1 0x1 PUSH1 0x1 PUSH1 0xA0 SHL SUB AND CALLER EQ PUSH2 0x168C JUMPI PUSH1 0x0 DUP1 REVERT JUMPDEST PUSH1 0x0 PUSH2 0x1696 PUSH2 0x17C4 JUMP JUMPDEST PUSH1 0x10 SLOAD PUSH1 0x40 DUP1 MLOAD PUSH4 0x70A08231 PUSH1 0xE0 SHL DUP2 MSTORE ADDRESS PUSH1 0x4 DUP3 ADD MSTORE SWAP1 MLOAD SWAP3 SWAP4 POP PUSH1 0x1 PUSH1 0x1 PUSH1 0xA0 SHL SUB DUP1 DUP6 AND SWAP4 PUSH4 0xA9059CBB SWAP4 SWAP1 SWAP2 AND SWAP2 DUP5 SWAP2 PUSH4 0x70A08231 SWAP2 PUSH1 0x24 DUP1 DUP3 ADD SWAP3 PUSH1 0x20 SWAP3 SWAP1 SWAP2 SWAP1 DUP3 SWAP1 SUB ADD DUP2 DUP7 DUP1 EXTCODESIZE ISZERO DUP1 ISZERO PUSH2 0xA32 JUMPI PUSH1 0x0 DUP1 REVERT JUMPDEST PUSH1 0x6 SLOAD PUSH1 0xFF AND ISZERO PUSH2 0x173D JUMPI PUSH1 0x40 DUP1 MLOAD PUSH3 0x461BCD PUSH1 0xE5 SHL DUP2 MSTORE PUSH1 0x20 PUSH1 0x4 DUP3 ADD MSTORE PUSH1 0x12 PUSH1 0x24 DUP3 ADD MSTORE PUSH18 0x10DBDB9D1C9858DD081A5CC81C185D5CD959 PUSH1 0x72 SHL PUSH1 0x44 DUP3 ADD MSTORE SWAP1 MLOAD SWAP1 DUP2 SWAP1 SUB PUSH1 0x64 ADD SWAP1 REVERT JUMPDEST PUSH1 0x1 PUSH1 0x1 PUSH1 0xA0 SHL SUB DUP2 AND PUSH1 0x0 SWAP1 DUP2 MSTORE PUSH1 0x18 PUSH1 0x20 MSTORE PUSH1 0x40 SWAP1 KECCAK256 SLOAD PUSH2 0x175E PUSH2 0x1C0A JUMP JUMPDEST PUSH2 0x1766 PUSH2 0x1D87 JUMP JUMPDEST PUSH1 0x9 SLOAD PUSH1 0x0 SWAP2 DUP3 MSTORE PUSH1 0x1D PUSH1 0x20 MSTORE PUSH1 0x40 SWAP1 SWAP2 KECCAK256 SSTORE POP JUMP JUMPDEST PUSH32 0x0 DUP2 JUMP JUMPDEST PUSH32 0x0 DUP2 JUMP JUMPDEST PUSH1 0x2 SLOAD PUSH1 0x1 PUSH1 0x1 PUSH1 0xA0 SHL SUB AND SWAP1 JUMP JUMPDEST PUSH1 0x13 SLOAD PUSH1 0x40 DUP1 MLOAD PUSH4 0x95EA7B3 PUSH1 0xE0 SHL DUP2 MSTORE PUSH1 0x1 PUSH1 0x1 PUSH1 0xA0 SHL SUB SWAP3 DUP4 AND PUSH1 0x4 DUP3 ADD MSTORE PUSH1 0x24 DUP2 ADD DUP5 SWAP1 MSTORE SWAP1 MLOAD PUSH32 0x0 SWAP1 SWAP3 AND SWAP2 PUSH4 0x95EA7B3 SWAP2 PUSH1 0x44 DUP1 DUP3 ADD SWAP3 PUSH1 0x20 SWAP3 SWAP1 SWAP2 SWAP1 DUP3 SWAP1 SUB ADD DUP2 PUSH1 0x0 DUP8 DUP1 EXTCODESIZE ISZERO DUP1 ISZERO PUSH2 0x184A JUMPI PUSH1 0x0 DUP1 REVERT JUMPDEST POP GAS CALL ISZERO DUP1 ISZERO PUSH2 0x185E JUMPI RETURNDATASIZE PUSH1 0x0 DUP1 RETURNDATACOPY RETURNDATASIZE PUSH1 0x0 REVERT JUMPDEST POP POP POP POP PUSH1 0x40 MLOAD RETURNDATASIZE PUSH1 0x20 DUP2 LT ISZERO PUSH2 0x1874 JUMPI PUSH1 0x0 DUP1 REVERT JUMPDEST POP POP PUSH1 0x40 DUP1 MLOAD PUSH4 0x95EA7B3 PUSH1 0xE0 SHL DUP2 MSTORE ADDRESS PUSH1 0x4 DUP3 ADD MSTORE PUSH1 0x24 DUP2 ADD DUP4 SWAP1 MSTORE SWAP1 MLOAD PUSH1 0x1 PUSH1 0x1 PUSH1 0xA0 SHL SUB PUSH32 0x0 AND SWAP2 PUSH4 0x95EA7B3 SWAP2 PUSH1 0x44 DUP1 DUP4 ADD SWAP3 PUSH1 0x20 SWAP3 SWAP2 SWAP1 DUP3 SWAP1 SUB ADD DUP2 PUSH1 0x0 DUP8 DUP1 EXTCODESIZE ISZERO DUP1 ISZERO PUSH2 0x18E5 JUMPI PUSH1 0x0 DUP1 REVERT JUMPDEST POP GAS CALL ISZERO DUP1 ISZERO PUSH2 0x18F9 JUMPI RETURNDATASIZE PUSH1 0x0 DUP1 RETURNDATACOPY RETURNDATASIZE PUSH1 0x0 REVERT JUMPDEST POP POP POP POP PUSH1 0x40 MLOAD RETURNDATASIZE PUSH1 0x20 DUP2 LT ISZERO PUSH2 0x190F JUMPI PUSH1 0x0 DUP1 REVERT JUMPDEST POP POP PUSH1 0x1E SLOAD PUSH1 0x11 SLOAD PUSH1 0x40 DUP1 MLOAD PUSH4 0x1A4CA37B PUSH1 0xE2 SHL DUP2 MSTORE PUSH1 0x1 PUSH1 0x1 PUSH1 0xA0 SHL SUB SWAP3 DUP4 AND PUSH1 0x4 DUP3 ADD MSTORE PUSH1 0x24 DUP2 ADD DUP6 SWAP1 MSTORE ADDRESS PUSH1 0x44 DUP3 ADD MSTORE SWAP1 MLOAD SWAP2 SWAP1 SWAP3 AND SWAP2 PUSH4 0x69328DEC SWAP2 PUSH1 0x64 DUP1 DUP4 ADD SWAP3 PUSH1 0x20 SWAP3 SWAP2 SWAP1 DUP3 SWAP1 SUB ADD DUP2 PUSH1 0x0 DUP8 DUP1 EXTCODESIZE ISZERO DUP1 ISZERO PUSH2 0x1970 JUMPI PUSH1 0x0 DUP1 REVERT JUMPDEST POP GAS CALL ISZERO DUP1 ISZERO PUSH2 0x1984 JUMPI RETURNDATASIZE PUSH1 0x0 DUP1 RETURNDATACOPY RETURNDATASIZE PUSH1 0x0 REVERT JUMPDEST POP POP POP POP PUSH1 0x40 MLOAD RETURNDATASIZE PUSH1 0x20 DUP2 LT ISZERO PUSH2 0x199A JUMPI PUSH1 0x0 DUP1 REVERT JUMPDEST POP POP POP JUMP JUMPDEST PUSH1 0x13 SLOAD PUSH1 0x40 DUP1 MLOAD PUSH4 0x95EA7B3 PUSH1 0xE0 SHL DUP2 MSTORE PUSH1 0x1 PUSH1 0x1 PUSH1 0xA0 SHL SUB SWAP3 DUP4 AND PUSH1 0x4 DUP3 ADD MSTORE PUSH10 0xD3C21BCECCEDA1000000 PUSH1 0x24 DUP3 ADD MSTORE SWAP1 MLOAD PUSH32 0x0 SWAP1 SWAP3 AND SWAP2 PUSH4 0x95EA7B3 SWAP2 PUSH1 0x44 DUP1 DUP3 ADD SWAP3 PUSH1 0x20 SWAP3 SWAP1 SWAP2 SWAP1 DUP3 SWAP1 SUB ADD DUP2 PUSH1 0x0 DUP8 DUP1 EXTCODESIZE ISZERO DUP1 ISZERO PUSH2 0x1A1F JUMPI PUSH1 0x0 DUP1 REVERT JUMPDEST POP GAS CALL ISZERO DUP1 ISZERO PUSH2 0x1A33 JUMPI RETURNDATASIZE PUSH1 0x0 DUP1 RETURNDATACOPY RETURNDATASIZE PUSH1 0x0 REVERT JUMPDEST POP POP POP POP PUSH1 0x40 MLOAD RETURNDATASIZE PUSH1 0x20 DUP2 LT ISZERO PUSH2 0x1A49 JUMPI PUSH1 0x0 DUP1 REVERT JUMPDEST POP POP PUSH1 0x40 DUP1 MLOAD PUSH4 0x95EA7B3 PUSH1 0xE0 SHL DUP2 MSTORE ADDRESS PUSH1 0x4 DUP3 ADD MSTORE PUSH10 0xD3C21BCECCEDA1000000 PUSH1 0x24 DUP3 ADD MSTORE SWAP1 MLOAD PUSH1 0x1 PUSH1 0x1 PUSH1 0xA0 SHL SUB PUSH32 0x0 AND SWAP2 PUSH4 0x95EA7B3 SWAP2 PUSH1 0x44 DUP1 DUP4 ADD SWAP3 PUSH1 0x20 SWAP3 SWAP2 SWAP1 DUP3 SWAP1 SUB ADD DUP2 PUSH1 0x0 DUP8 DUP1 EXTCODESIZE ISZERO DUP1 ISZERO PUSH2 0x1AC3 JUMPI PUSH1 0x0 DUP1 REVERT JUMPDEST POP GAS CALL ISZERO DUP1 ISZERO PUSH2 0x1AD7 JUMPI RETURNDATASIZE PUSH1 0x0 DUP1 RETURNDATACOPY RETURNDATASIZE PUSH1 0x0 REVERT JUMPDEST POP POP POP POP PUSH1 0x40 MLOAD RETURNDATASIZE PUSH1 0x20 DUP2 LT ISZERO PUSH2 0x1AED JUMPI PUSH1 0x0 DUP1 REVERT JUMPDEST POP POP PUSH1 0x1E SLOAD PUSH1 0x11 SLOAD PUSH1 0x40 DUP1 MLOAD PUSH4 0x70A08231 PUSH1 0xE0 SHL DUP2 MSTORE ADDRESS PUSH1 0x4 DUP3 ADD MSTORE SWAP1 MLOAD PUSH1 0x1 PUSH1 0x1 PUSH1 0xA0 SHL SUB SWAP4 DUP5 AND SWAP4 PUSH4 0xE8EDA9DF SWAP4 DUP2 AND SWAP3 PUSH32 0x0 SWAP1 SWAP2 AND SWAP2 PUSH4 0x70A08231 SWAP2 PUSH1 0x24 DUP1 DUP3 ADD SWAP3 PUSH1 0x20 SWAP3 SWAP1 SWAP2 SWAP1 DUP3 SWAP1 SUB ADD DUP2 DUP7 DUP1 EXTCODESIZE ISZERO DUP1 ISZERO PUSH2 0x1B6B JUMPI PUSH1 0x0 DUP1 REVERT JUMPDEST POP GAS STATICCALL ISZERO DUP1 ISZERO PUSH2 0x1B7F JUMPI RETURNDATASIZE PUSH1 0x0 DUP1 RETURNDATACOPY RETURNDATASIZE PUSH1 0x0 REVERT JUMPDEST POP POP POP POP PUSH1 0x40 MLOAD RETURNDATASIZE PUSH1 0x20 DUP2 LT ISZERO PUSH2 0x1B95 JUMPI PUSH1 0x0 DUP1 REVERT JUMPDEST POP MLOAD PUSH1 0x40 DUP1 MLOAD PUSH1 0x1 PUSH1 0x1 PUSH1 0xE0 SHL SUB NOT PUSH1 0xE0 DUP7 SWAP1 SHL AND DUP2 MSTORE PUSH1 0x1 PUSH1 0x1 PUSH1 0xA0 SHL SUB SWAP1 SWAP4 AND PUSH1 0x4 DUP5 ADD MSTORE PUSH1 0x24 DUP4 ADD SWAP2 SWAP1 SWAP2 MSTORE ADDRESS PUSH1 0x44 DUP4 ADD MSTORE PUSH1 0x0 PUSH1 0x64 DUP4 ADD DUP2 SWAP1 MSTORE SWAP1 MLOAD PUSH1 0x84 DUP1 DUP5 ADD SWAP4 DUP3 SWAP1 SUB ADD DUP2 DUP4 DUP8 DUP1 EXTCODESIZE ISZERO DUP1 ISZERO PUSH2 0x1BF0 JUMPI PUSH1 0x0 DUP1 REVERT JUMPDEST POP GAS CALL ISZERO DUP1 ISZERO PUSH2 0x1C04 JUMPI RETURNDATASIZE PUSH1 0x0 DUP1 RETURNDATACOPY RETURNDATASIZE PUSH1 0x0 REVERT JUMPDEST POP POP POP POP JUMP JUMPDEST PUSH1 0x10 SLOAD PUSH1 0x1 PUSH1 0x1 PUSH1 0xA0 SHL SUB AND CALLER EQ PUSH2 0x1C21 JUMPI PUSH1 0x0 DUP1 REVERT JUMPDEST PUSH1 0x6 SLOAD PUSH1 0xFF AND ISZERO PUSH2 0x1C6E JUMPI PUSH1 0x40 DUP1 MLOAD PUSH3 0x461BCD PUSH1 0xE5 SHL DUP2 MSTORE PUSH1 0x20 PUSH1 0x4 DUP3 ADD MSTORE PUSH1 0x12 PUSH1 0x24 DUP3 ADD MSTORE PUSH18 0x10DBDB9D1C9858DD081A5CC81C185D5CD959 PUSH1 0x72 SHL PUSH1 0x44 DUP3 ADD MSTORE SWAP1 MLOAD SWAP1 DUP2 SWAP1 SUB PUSH1 0x64 ADD SWAP1 REVERT JUMPDEST PUSH1 0xA SLOAD PUSH2 0xFFFF DUP1 DUP3 AND PUSH3 0x10000 DUP4 DIV DUP3 AND ADD PUSH5 0x100000000 SWAP1 SWAP3 DIV DUP2 AND SWAP2 SWAP1 SWAP2 ADD AND PUSH2 0x1CCB JUMPI PUSH1 0x40 MLOAD PUSH3 0x461BCD PUSH1 0xE5 SHL DUP2 MSTORE PUSH1 0x4 ADD DUP1 DUP1 PUSH1 0x20 ADD DUP3 DUP2 SUB DUP3 MSTORE PUSH1 0x2E DUP2 MSTORE PUSH1 0x20 ADD DUP1 PUSH2 0x269D PUSH1 0x2E SWAP2 CODECOPY PUSH1 0x40 ADD SWAP2 POP POP PUSH1 0x40 MLOAD DUP1 SWAP2 SUB SWAP1 REVERT JUMPDEST PUSH1 0x8 DUP1 SLOAD PUSH2 0xFFFF NOT AND SWAP1 SSTORE PUSH2 0x1D6D PUSH1 0x15 PUSH1 0x0 JUMPDEST ADD DUP1 SLOAD PUSH1 0x40 DUP1 MLOAD PUSH1 0x20 PUSH1 0x2 PUSH1 0x1 DUP6 AND ISZERO PUSH2 0x100 MUL PUSH1 0x0 NOT ADD SWAP1 SWAP5 AND SWAP4 SWAP1 SWAP4 DIV PUSH1 0x1F DUP2 ADD DUP5 SWAP1 DIV DUP5 MUL DUP3 ADD DUP5 ADD SWAP1 SWAP3 MSTORE DUP2 DUP2 MSTORE SWAP3 SWAP2 DUP4 ADD DUP3 DUP3 DUP1 ISZERO PUSH2 0x1D63 JUMPI DUP1 PUSH1 0x1F LT PUSH2 0x1D38 JUMPI PUSH2 0x100 DUP1 DUP4 SLOAD DIV MUL DUP4 MSTORE SWAP2 PUSH1 0x20 ADD SWAP2 PUSH2 0x1D63 JUMP JUMPDEST DUP3 ADD SWAP2 SWAP1 PUSH1 0x0 MSTORE PUSH1 0x20 PUSH1 0x0 KECCAK256 SWAP1 JUMPDEST DUP2 SLOAD DUP2 MSTORE SWAP1 PUSH1 0x1 ADD SWAP1 PUSH1 0x20 ADD DUP1 DUP4 GT PUSH2 0x1D46 JUMPI DUP3 SWAP1 SUB PUSH1 0x1F AND DUP3 ADD SWAP2 JUMPDEST POP POP POP POP POP PUSH2 0x1E34 JUMP JUMPDEST POP PUSH2 0x1D7A PUSH1 0x15 PUSH1 0x1 PUSH2 0x1CDE JUMP JUMPDEST POP PUSH2 0xB1F PUSH1 0x15 PUSH1 0x2 PUSH2 0x1CDE JUMP JUMPDEST PUSH1 0x6 SLOAD PUSH1 0xFF AND ISZERO PUSH2 0x1DD4 JUMPI PUSH1 0x40 DUP1 MLOAD PUSH3 0x461BCD PUSH1 0xE5 SHL DUP2 MSTORE PUSH1 0x20 PUSH1 0x4 DUP3 ADD MSTORE PUSH1 0x12 PUSH1 0x24 DUP3 ADD MSTORE PUSH18 0x10DBDB9D1C9858DD081A5CC81C185D5CD959 PUSH1 0x72 SHL PUSH1 0x44 DUP3 ADD MSTORE SWAP1 MLOAD SWAP1 DUP2 SWAP1 SUB PUSH1 0x64 ADD SWAP1 REVERT JUMPDEST PUSH1 0x0 JUMPDEST PUSH1 0x3 DUP2 PUSH2 0xFFFF AND LT ISZERO PUSH2 0xB1F JUMPI PUSH1 0xC DUP2 PUSH2 0xFFFF AND PUSH1 0x3 DUP2 LT PUSH2 0x1DF5 JUMPI INVALID JUMPDEST ADD SLOAD PUSH2 0x1E2C JUMPI PUSH1 0xA DUP1 SLOAD PUSH1 0x1 PUSH2 0xFFFF PUSH9 0x10000000000000000 DUP1 DUP5 DIV DUP3 AND SWAP3 SWAP1 SWAP3 ADD AND MUL PUSH10 0xFFFF0000000000000000 NOT SWAP1 SWAP2 AND OR SWAP1 SSTORE JUMPDEST PUSH1 0x1 ADD PUSH2 0x1DD7 JUMP JUMPDEST PUSH1 0x6 SLOAD PUSH1 0x0 SWAP1 PUSH1 0xFF AND ISZERO PUSH2 0x1E84 JUMPI PUSH1 0x40 DUP1 MLOAD PUSH3 0x461BCD PUSH1 0xE5 SHL DUP2 MSTORE PUSH1 0x20 PUSH1 0x4 DUP3 ADD MSTORE PUSH1 0x12 PUSH1 0x24 DUP3 ADD MSTORE PUSH18 0x10DBDB9D1C9858DD081A5CC81C185D5CD959 PUSH1 0x72 SHL PUSH1 0x44 DUP3 ADD MSTORE SWAP1 MLOAD SWAP1 DUP2 SWAP1 SUB PUSH1 0x64 ADD SWAP1 REVERT JUMPDEST PUSH2 0x1E8C PUSH2 0x2602 JUMP JUMPDEST PUSH2 0x1EBE PUSH32 0x0 ADDRESS PUSH4 0x21ABC2AF PUSH1 0xE1 SHL PUSH2 0x1F8F JUMP JUMPDEST PUSH1 0x40 DUP1 MLOAD DUP1 DUP3 ADD SWAP1 SWAP2 MSTORE PUSH1 0x3 DUP2 MSTORE PUSH3 0x19D95D PUSH1 0xEA SHL PUSH1 0x20 DUP3 ADD MSTORE SWAP1 SWAP2 POP PUSH2 0x1EE7 SWAP1 DUP3 SWAP1 DUP6 PUSH2 0x1FB4 JUMP JUMPDEST PUSH2 0x1F3D PUSH1 0x40 MLOAD DUP1 PUSH1 0x40 ADD PUSH1 0x40 MSTORE DUP1 PUSH1 0x4 DUP2 MSTORE PUSH1 0x20 ADD PUSH4 0xE0C2E8D PUSH1 0xE3 SHL DUP2 MSTORE POP PUSH1 0x40 MLOAD DUP1 PUSH1 0x40 ADD PUSH1 0x40 MSTORE DUP1 PUSH1 0xD DUP2 MSTORE PUSH1 0x20 ADD PUSH13 0x3230BA30971817373AB6B132B9 PUSH1 0x99 SHL DUP2 MSTORE POP DUP4 PUSH2 0x1FB4 SWAP1 SWAP3 SWAP2 SWAP1 PUSH4 0xFFFFFFFF AND JUMP JUMPDEST PUSH2 0x1F88 PUSH32 0x0 DUP3 PUSH32 0x0 PUSH2 0x1FD2 JUMP JUMPDEST SWAP4 SWAP3 POP POP POP JUMP JUMPDEST PUSH2 0x1F97 PUSH2 0x2602 JUMP JUMPDEST PUSH2 0x1F9F PUSH2 0x2602 JUMP JUMPDEST PUSH2 0x1FAB DUP2 DUP7 DUP7 DUP7 PUSH2 0x21A0 JUMP JUMPDEST SWAP6 SWAP5 POP POP POP POP POP JUMP JUMPDEST PUSH1 0x80 DUP4 ADD MLOAD PUSH2 0x1FC3 SWAP1 DUP4 PUSH2 0x21DD JUMP JUMPDEST PUSH1 0x80 DUP4 ADD MLOAD PUSH2 0x199A SWAP1 DUP3 PUSH2 0x21DD JUMP JUMPDEST PUSH1 0x4 SLOAD PUSH1 0x40 DUP1 MLOAD ADDRESS PUSH1 0x60 SWAP1 DUP2 SHL PUSH1 0x20 DUP1 DUP5 ADD SWAP2 SWAP1 SWAP2 MSTORE PUSH1 0x34 DUP1 DUP5 ADD DUP7 SWAP1 MSTORE DUP5 MLOAD DUP1 DUP6 SUB SWAP1 SWAP2 ADD DUP2 MSTORE PUSH1 0x54 SWAP1 SWAP4 ADD DUP5 MSTORE DUP3 MLOAD SWAP3 DUP2 ADD SWAP3 SWAP1 SWAP3 KECCAK256 SWAP1 DUP7 ADD SWAP4 SWAP1 SWAP4 MSTORE PUSH1 0x0 DUP4 DUP2 MSTORE PUSH1 0x5 SWAP1 SWAP2 MSTORE DUP2 DUP2 KECCAK256 DUP1 SLOAD PUSH1 0x1 PUSH1 0x1 PUSH1 0xA0 SHL SUB NOT AND PUSH1 0x1 PUSH1 0x1 PUSH1 0xA0 SHL SUB DUP9 AND OR SWAP1 SSTORE SWAP1 MLOAD DUP3 SWAP2 PUSH32 0xB5E6E01E79F91267DC17B4E6314D5D4D03593D2CEEE0FBB452B750BD70EA5AF9 SWAP2 LOG2 PUSH1 0x2 SLOAD PUSH1 0x1 PUSH1 0x1 PUSH1 0xA0 SHL SUB AND PUSH4 0x4000AEA0 DUP6 DUP5 PUSH2 0x207A DUP8 PUSH2 0x21F4 JUMP JUMPDEST PUSH1 0x40 MLOAD DUP5 PUSH4 0xFFFFFFFF AND PUSH1 0xE0 SHL DUP2 MSTORE PUSH1 0x4 ADD DUP1 DUP5 PUSH1 0x1 PUSH1 0x1 PUSH1 0xA0 SHL SUB AND DUP2 MSTORE PUSH1 0x20 ADD DUP4 DUP2 MSTORE PUSH1 0x20 ADD DUP1 PUSH1 0x20 ADD DUP3 DUP2 SUB DUP3 MSTORE DUP4 DUP2 DUP2 MLOAD DUP2 MSTORE PUSH1 0x20 ADD SWAP2 POP DUP1 MLOAD SWAP1 PUSH1 0x20 ADD SWAP1 DUP1 DUP4 DUP4 PUSH1 0x0 JUMPDEST DUP4 DUP2 LT ISZERO PUSH2 0x20DB JUMPI DUP2 DUP2 ADD MLOAD DUP4 DUP3 ADD MSTORE PUSH1 0x20 ADD PUSH2 0x20C3 JUMP JUMPDEST POP POP POP POP SWAP1 POP SWAP1 DUP2 ADD SWAP1 PUSH1 0x1F AND DUP1 ISZERO PUSH2 0x2108 JUMPI DUP1 DUP3 SUB DUP1 MLOAD PUSH1 0x1 DUP4 PUSH1 0x20 SUB PUSH2 0x100 EXP SUB NOT AND DUP2 MSTORE PUSH1 0x20 ADD SWAP2 POP JUMPDEST POP SWAP5 POP POP POP POP POP PUSH1 0x20 PUSH1 0x40 MLOAD DUP1 DUP4 SUB DUP2 PUSH1 0x0 DUP8 DUP1 EXTCODESIZE ISZERO DUP1 ISZERO PUSH2 0x2129 JUMPI PUSH1 0x0 DUP1 REVERT JUMPDEST POP GAS CALL ISZERO DUP1 ISZERO PUSH2 0x213D JUMPI RETURNDATASIZE PUSH1 0x0 DUP1 RETURNDATACOPY RETURNDATASIZE PUSH1 0x0 REVERT JUMPDEST POP POP POP POP PUSH1 0x40 MLOAD RETURNDATASIZE PUSH1 0x20 DUP2 LT ISZERO PUSH2 0x2153 JUMPI PUSH1 0x0 DUP1 REVERT JUMPDEST POP MLOAD PUSH2 0x2190 JUMPI PUSH1 0x40 MLOAD PUSH3 0x461BCD PUSH1 0xE5 SHL DUP2 MSTORE PUSH1 0x4 ADD DUP1 DUP1 PUSH1 0x20 ADD DUP3 DUP2 SUB DUP3 MSTORE PUSH1 0x23 DUP2 MSTORE PUSH1 0x20 ADD DUP1 PUSH2 0x2652 PUSH1 0x23 SWAP2 CODECOPY PUSH1 0x40 ADD SWAP2 POP POP PUSH1 0x40 MLOAD DUP1 SWAP2 SUB SWAP1 REVERT JUMPDEST PUSH1 0x4 DUP1 SLOAD PUSH1 0x1 ADD SWAP1 SSTORE SWAP4 SWAP3 POP POP POP JUMP JUMPDEST PUSH2 0x21A8 PUSH2 0x2602 JUMP JUMPDEST PUSH2 0x21B8 DUP6 PUSH1 0x80 ADD MLOAD PUSH2 0x100 PUSH2 0x2318 JUMP JUMPDEST POP POP SWAP2 DUP4 MSTORE PUSH1 0x1 PUSH1 0x1 PUSH1 0xA0 SHL SUB AND PUSH1 0x20 DUP4 ADD MSTORE PUSH1 0x1 PUSH1 0x1 PUSH1 0xE0 SHL SUB NOT AND PUSH1 0x40 DUP3 ADD MSTORE SWAP1 JUMP JUMPDEST PUSH2 0x21EA DUP3 PUSH1 0x3 DUP4 MLOAD PUSH2 0x2358 JUMP JUMPDEST PUSH2 0x199A DUP3 DUP3 PUSH2 0x242C JUMP JUMPDEST PUSH1 0x60 PUSH4 0x40429946 PUSH1 0xE0 SHL PUSH1 0x0 DUP1 DUP5 PUSH1 0x0 ADD MLOAD DUP6 PUSH1 0x20 ADD MLOAD DUP7 PUSH1 0x40 ADD MLOAD DUP8 PUSH1 0x60 ADD MLOAD PUSH1 0x1 DUP10 PUSH1 0x80 ADD MLOAD PUSH1 0x0 ADD MLOAD PUSH1 0x40 MLOAD PUSH1 0x24 ADD DUP1 DUP10 PUSH1 0x1 PUSH1 0x1 PUSH1 0xA0 SHL SUB AND DUP2 MSTORE PUSH1 0x20 ADD DUP9 DUP2 MSTORE PUSH1 0x20 ADD DUP8 DUP2 MSTORE PUSH1 0x20 ADD DUP7 PUSH1 0x1 PUSH1 0x1 PUSH1 0xA0 SHL SUB AND DUP2 MSTORE PUSH1 0x20 ADD DUP6 PUSH1 0x1 PUSH1 0x1 PUSH1 0xE0 SHL SUB NOT AND DUP2 MSTORE PUSH1 0x20 ADD DUP5 DUP2 MSTORE PUSH1 0x20 ADD DUP4 DUP2 MSTORE PUSH1 0x20 ADD DUP1 PUSH1 0x20 ADD DUP3 DUP2 SUB DUP3 MSTORE DUP4 DUP2 DUP2 MLOAD DUP2 MSTORE PUSH1 0x20 ADD SWAP2 POP DUP1 MLOAD SWAP1 PUSH1 0x20 ADD SWAP1 DUP1 DUP4 DUP4 PUSH1 0x0 JUMPDEST DUP4 DUP2 LT ISZERO PUSH2 0x22A6 JUMPI DUP2 DUP2 ADD MLOAD DUP4 DUP3 ADD MSTORE PUSH1 0x20 ADD PUSH2 0x228E JUMP JUMPDEST POP POP POP POP SWAP1 POP SWAP1 DUP2 ADD SWAP1 PUSH1 0x1F AND DUP1 ISZERO PUSH2 0x22D3 JUMPI DUP1 DUP3 SUB DUP1 MLOAD PUSH1 0x1 DUP4 PUSH1 0x20 SUB PUSH2 0x100 EXP SUB NOT AND DUP2 MSTORE PUSH1 0x20 ADD SWAP2 POP JUMPDEST POP PUSH1 0x40 DUP1 MLOAD PUSH1 0x1F NOT DUP2 DUP5 SUB ADD DUP2 MSTORE SWAP2 SWAP1 MSTORE PUSH1 0x20 DUP2 ADD DUP1 MLOAD PUSH1 0x1 PUSH1 0x1 PUSH1 0xE0 SHL SUB AND PUSH1 0x1 PUSH1 0x1 PUSH1 0xE0 SHL SUB NOT SWAP1 SWAP14 AND SWAP13 SWAP1 SWAP13 OR SWAP1 SWAP12 MSTORE POP SWAP9 SWAP10 POP POP POP POP POP POP POP POP POP POP SWAP2 SWAP1 POP JUMP JUMPDEST PUSH2 0x2320 PUSH2 0x2637 JUMP JUMPDEST PUSH1 0x20 DUP3 MOD ISZERO PUSH2 0x2335 JUMPI PUSH1 0x20 DUP3 MOD PUSH1 0x20 SUB DUP3 ADD SWAP2 POP JUMPDEST POP PUSH1 0x20 DUP1 DUP4 ADD DUP3 SWAP1 MSTORE PUSH1 0x40 DUP1 MLOAD DUP1 DUP6 MSTORE PUSH1 0x0 DUP2 MSTORE DUP4 ADD SWAP1 SWAP2 ADD SWAP1 MSTORE DUP2 JUMPDEST SWAP3 SWAP2 POP POP JUMP JUMPDEST PUSH1 0x17 DUP2 GT PUSH2 0x2379 JUMPI PUSH2 0x2373 DUP4 PUSH1 0xE0 PUSH1 0x5 DUP6 SWAP1 SHL AND DUP4 OR PUSH2 0x2446 JUMP JUMPDEST POP PUSH2 0x199A JUMP JUMPDEST PUSH1 0xFF DUP2 GT PUSH2 0x23A3 JUMPI PUSH2 0x2396 DUP4 PUSH1 0x18 PUSH2 0x1FE0 PUSH1 0x5 DUP7 SWAP1 SHL AND OR PUSH2 0x2446 JUMP JUMPDEST POP PUSH2 0x2373 DUP4 DUP3 PUSH1 0x1 PUSH2 0x245E JUMP JUMPDEST PUSH2 0xFFFF DUP2 GT PUSH2 0x23CE JUMPI PUSH2 0x23C1 DUP4 PUSH1 0x19 PUSH2 0x1FE0 PUSH1 0x5 DUP7 SWAP1 SHL AND OR PUSH2 0x2446 JUMP JUMPDEST POP PUSH2 0x2373 DUP4 DUP3 PUSH1 0x2 PUSH2 0x245E JUMP JUMPDEST PUSH4 0xFFFFFFFF DUP2 GT PUSH2 0x23FB JUMPI PUSH2 0x23EE DUP4 PUSH1 0x1A PUSH2 0x1FE0 PUSH1 0x5 DUP7 SWAP1 SHL AND OR PUSH2 0x2446 JUMP JUMPDEST POP PUSH2 0x2373 DUP4 DUP3 PUSH1 0x4 PUSH2 0x245E JUMP JUMPDEST PUSH8 0xFFFFFFFFFFFFFFFF DUP2 GT PUSH2 0x199A JUMPI PUSH2 0x241F DUP4 PUSH1 0x1B PUSH2 0x1FE0 PUSH1 0x5 DUP7 SWAP1 SHL AND OR PUSH2 0x2446 JUMP JUMPDEST POP PUSH2 0x1C04 DUP4 DUP3 PUSH1 0x8 PUSH2 0x245E JUMP JUMPDEST PUSH2 0x2434 PUSH2 0x2637 JUMP JUMPDEST PUSH2 0x1F88 DUP4 DUP5 PUSH1 0x0 ADD MLOAD MLOAD DUP5 DUP6 MLOAD PUSH2 0x247F JUMP JUMPDEST PUSH2 0x244E PUSH2 0x2637 JUMP JUMPDEST PUSH2 0x1F88 DUP4 DUP5 PUSH1 0x0 ADD MLOAD MLOAD DUP5 PUSH2 0x252B JUMP JUMPDEST PUSH2 0x2466 PUSH2 0x2637 JUMP JUMPDEST PUSH2 0x2477 DUP5 DUP6 PUSH1 0x0 ADD MLOAD MLOAD DUP6 DUP6 PUSH2 0x2576 JUMP JUMPDEST SWAP5 SWAP4 POP POP POP POP JUMP JUMPDEST PUSH2 0x2487 PUSH2 0x2637 JUMP JUMPDEST DUP3 MLOAD DUP3 GT ISZERO PUSH2 0x2495 JUMPI PUSH1 0x0 DUP1 REVERT JUMPDEST DUP5 PUSH1 0x20 ADD MLOAD DUP3 DUP6 ADD GT ISZERO PUSH2 0x24BF JUMPI PUSH2 0x24BF DUP6 PUSH2 0x24B7 DUP8 PUSH1 0x20 ADD MLOAD DUP8 DUP7 ADD PUSH2 0x25D4 JUMP JUMPDEST PUSH1 0x2 MUL PUSH2 0x25EB JUMP JUMPDEST PUSH1 0x0 DUP1 DUP7 MLOAD DUP1 MLOAD DUP8 PUSH1 0x20 DUP4 ADD ADD SWAP4 POP DUP1 DUP9 DUP8 ADD GT ISZERO PUSH2 0x24DE JUMPI DUP8 DUP7 ADD DUP3 MSTORE JUMPDEST POP POP POP PUSH1 0x20 DUP5 ADD JUMPDEST PUSH1 0x20 DUP5 LT PUSH2 0x2505 JUMPI DUP1 MLOAD DUP3 MSTORE PUSH1 0x1F NOT SWAP1 SWAP4 ADD SWAP3 PUSH1 0x20 SWAP2 DUP3 ADD SWAP2 ADD PUSH2 0x24E6 JUMP JUMPDEST MLOAD DUP2 MLOAD PUSH1 0x0 NOT PUSH1 0x20 DUP7 SWAP1 SUB PUSH2 0x100 EXP ADD SWAP1 DUP2 AND SWAP1 NOT SWAP2 SWAP1 SWAP2 AND OR SWAP1 MSTORE POP DUP4 SWAP5 SWAP4 POP POP POP POP JUMP JUMPDEST PUSH2 0x2533 PUSH2 0x2637 JUMP JUMPDEST DUP4 PUSH1 0x20 ADD MLOAD DUP4 LT PUSH2 0x254F JUMPI PUSH2 0x254F DUP5 DUP6 PUSH1 0x20 ADD MLOAD PUSH1 0x2 MUL PUSH2 0x25EB JUMP JUMPDEST DUP4 MLOAD DUP1 MLOAD PUSH1 0x20 DUP6 DUP4 ADD ADD DUP5 DUP2 MSTORE8 POP DUP1 DUP6 EQ ISZERO PUSH2 0x256C JUMPI PUSH1 0x1 DUP2 ADD DUP3 MSTORE JUMPDEST POP SWAP4 SWAP5 SWAP4 POP POP POP POP JUMP JUMPDEST PUSH2 0x257E PUSH2 0x2637 JUMP JUMPDEST DUP5 PUSH1 0x20 ADD MLOAD DUP5 DUP4 ADD GT ISZERO PUSH2 0x259B JUMPI PUSH2 0x259B DUP6 DUP6 DUP5 ADD PUSH1 0x2 MUL PUSH2 0x25EB JUMP JUMPDEST PUSH1 0x0 PUSH1 0x1 DUP4 PUSH2 0x100 EXP SUB SWAP1 POP DUP6 MLOAD DUP4 DUP7 DUP3 ADD ADD DUP6 DUP4 NOT DUP3 MLOAD AND OR DUP2 MSTORE POP DUP1 MLOAD DUP5 DUP8 ADD GT ISZERO PUSH2 0x25C9 JUMPI DUP4 DUP7 ADD DUP2 MSTORE JUMPDEST POP SWAP5 SWAP6 SWAP5 POP POP POP POP POP JUMP JUMPDEST PUSH1 0x0 DUP2 DUP4 GT ISZERO PUSH2 0x25E5 JUMPI POP DUP2 PUSH2 0x2352 JUMP JUMPDEST POP SWAP2 SWAP1 POP JUMP JUMPDEST DUP2 MLOAD PUSH2 0x25F7 DUP4 DUP4 PUSH2 0x2318 JUMP JUMPDEST POP PUSH2 0x1C04 DUP4 DUP3 PUSH2 0x242C JUMP JUMPDEST PUSH1 0x40 DUP1 MLOAD PUSH1 0xA0 DUP2 ADD DUP3 MSTORE PUSH1 0x0 DUP1 DUP3 MSTORE PUSH1 0x20 DUP3 ADD DUP2 SWAP1 MSTORE SWAP2 DUP2 ADD DUP3 SWAP1 MSTORE PUSH1 0x60 DUP2 ADD SWAP2 SWAP1 SWAP2 MSTORE PUSH1 0x80 DUP2 ADD PUSH2 0x2632 PUSH2 0x2637 JUMP JUMPDEST SWAP1 MSTORE SWAP1 JUMP JUMPDEST PUSH1 0x40 MLOAD DUP1 PUSH1 0x40 ADD PUSH1 0x40 MSTORE DUP1 PUSH1 0x60 DUP2 MSTORE PUSH1 0x20 ADD PUSH1 0x0 DUP2 MSTORE POP SWAP1 JUMP INVALID PUSH22 0x6E61626C6520746F207472616E73666572416E644361 PUSH13 0x6C20746F206F7261636C65536F PUSH22 0x726365206D75737420626520746865206F7261636C65 KECCAK256 PUSH16 0x66207468652072657175657374706C65 PUSH2 0x7365 KECCAK256 PUSH20 0x6574207765696768747320666F72206167677265 PUSH8 0x6174696E67206F72 PUSH2 0x636C PUSH6 0x2064617461A2 PUSH5 0x6970667358 0x22 SLT KECCAK256 KECCAK256 0xEE 0xA9 0x26 LOG0 COINBASE 0xCE 0xE8 0xF9 0xC4 0xBF DIV PUSH17 0x29D3DCE93A4CB47389F542FCC3B93CE0E0 DUP2 0xB6 PUSH5 0x736F6C6343 STOP MOD 0xC STOP CALLER ",
  "sha1": "0ccec82d65cb9d3d05ea6c3838f5a13b7204fe68",
  "source": "// SPDX-License-Identifier: MIT\n// this contract is deployed on Kovan at 0xB5600D46f8e7191B3791eCCEC7697a537976d4d5\n\npragma solidity ^0.6.6;\n\nimport \"@chainlink/contracts/src/v0.6/ChainlinkClient.sol\";\nimport \"../interfaces/IERC20.sol\";\nimport \"../interfaces/ILendingPoolAddressesProviderV2.sol\";\nimport \"../interfaces/ILendingPoolV2.sol\";\n\ncontract BrightLink is ChainlinkClient {\n\n    bool public paused;\n    int Id = 0;\n    uint16 private constant referral = 0;\n    uint16 index;\n    uint256 aggregateData;\n    uint16 w1 = 100;\n    uint16 w2 = 100;\n    uint16 w3 = 100;\n    uint16 minResponses = 2;\n    uint16 badOracles = 0;\n    bytes32 private immutable jobID;\n    uint256 private immutable fee;\n    address private immutable oracle; \n    uint256 public depositedFunds;\n    uint256[3] public oracleData;\n    uint256 public value;\n    address private owner;\n    address public dai_address;\n    address public adai_address;\n    address public poolAddress;\n    address public poolAddressProvider;\n    string[3] public APIaddresses;   \n    mapping(address => int) private customerToAgreementID;\n    mapping(address => int) private donorToAgreementID;\n    mapping(int => address) private agreementIdToDonor;\n    mapping(int => uint256) private agreementIdToBaseline;\n    mapping(int => uint256) private agreementIdToValue;\n    mapping (int => uint256) public agreementIdToRetrievedData;\n    IERC20 public immutable dai;\n    IERC20 public immutable adai;    \n    ILendingPoolV2 public lendingPool;\n    ILendingPoolAddressesProviderV2 public provider;\n\n    constructor(address _dai_address, address _adai_address, address _link, address _poolAddressProvider,\n    address _oracle, string memory _jobID, uint256 _fee) public{\n        \n        // var instantiations\n        owner = msg.sender;\n        paused = false;\n        depositedFunds = 0;\n        dai_address = _dai_address;\n        adai_address = _adai_address;\n        poolAddressProvider = _poolAddressProvider;\n        dai = IERC20(dai_address);\n        adai = IERC20(adai_address);\n        provider = ILendingPoolAddressesProviderV2(poolAddressProvider); \n        poolAddress = provider.getLendingPool();\n        lendingPool = ILendingPoolV2(poolAddress);\n        oracle = _oracle;\n        jobID = stringToBytes32(_jobID);\n        fee = _fee;\n        APIaddresses[0] = \"https://raw.githubusercontent.com/jmcook1186/jmcook1186.github.io/main/Data/BrightLinkData/SentinelData.json\";\n        APIaddresses[1] = \"https://raw.githubusercontent.com/jmcook1186/jmcook1186.github.io/main/Data/BrightLinkData/LandsatData.json\";\n        APIaddresses[2] = \"https://raw.githubusercontent.com/jmcook1186/jmcook1186.github.io/main/Data/BrightLinkData/ModisData.json\";\n        oracleData[0] = 0;\n        oracleData[1] = 0;\n        oracleData[2] = 0;\n\n        // set link token address depending on network\n        if (_link == address(0)) {\n            setPublicChainlinkToken();\n        } else {\n            setChainlinkToken(_link);\n        }\n\n    }\n\n    /**\n    @dev\n    Add new customer to contract. Adds customer to mappings, generates new \n    agreementId. Triggers deposit of funds to Aave pool to begin accruing yield. Adds value to\n    cumulative deposits.\n    \n    Requires remote sensing scripts to have been run to estabish baseline data at API endpoints\n    Requires donor to approve dai transfer before function is called:\n    dai.approve(contract,200e18,{'from':donor})\n    Approving _value only (rather than unlimited approval) protects against any re-entrancy attack.\n    \n    Removed onlyOwner modifier so anyone can add an agreement if paid for by a donor. Requires\n    donor to have approved a DAI transfer of value >= _value.\n\n     */\n    function addNewCustomer(address _customer, address _donor, uint256 _value) public notPaused {\n\n        // require that the customer does not have an existing agreement\n        require(customerToAgreementID[_customer] <= 0,\"customer already exists\");\n\n        \n        depositedFunds += _value;\n        customerToAgreementID[_customer] = Id;\n        donorToAgreementID[_donor] = Id;\n        agreementIdToValue[Id] = _value;\n        agreementIdToDonor[Id]  = _donor;\n        \n        \n        require(dai.transferFrom(_donor, address(this), _value));\n        depositFundsToAave();\n\n        Id+=1; \n    }\n\n\n    /**\n    @dev\n    internal func called by addNewCustomer()\n    sends all dai in contract to Aave lending pool,\n    returning aDai\n     */\n    function depositFundsToAave() internal{\n\n        dai.approve(poolAddress,1000000e18);\n        dai.approve(address(this),1000000e18);\n        lendingPool.deposit(dai_address,\n        dai.balanceOf(address(this)), address(this), referral);\n        \n    }\n\n    /**\n    @dev\n    returns accumulated aDai to Aave pool, retrieving Dai at 1:1\n     */\n    function WithdrawFundsFromAave(uint _amount) internal{\n    \t\n        adai.approve(poolAddress, _amount);\n        adai.approve(address(this), _amount);\n        lendingPool.withdraw(dai_address, _amount, address(this));\n\n    }\n\n    /**\n    @dev \n    internal, called by setBaseLine() and UpdateOracleData()\n    sets weighting for aggregating the oracle data\n    default is to trust all oracles equally (100,100,100)\n     */\n    function setWeights(uint16 _w1, uint16 _w2, uint16 _w3) internal {\n\n        w1 = _w1;\n        w2 = _w2;\n        w3 = _w3;\n\n    }\n\n    /**\n    @dev\n    assumes remote sensing scripts have been run setting baseline data at the API endpoints\n     */\n    function setBaseLine(address _customer) public notPaused{\n        \n        int id = customerToAgreementID[_customer];\n\n        // MOCKING: REPLACE NECT TWO LINES WITH HARD-CODED VALUE\n        // requestDataFromAPI();\n        // validateOracleData();\n        aggregateData = 5;\n        agreementIdToBaseline[id] = aggregateData;\n\n    }\n\n    /**\n    @dev\n    assumes remote sensing scripts have been run a second time, updating the API endpoints\n     */\n    function UpdateOracleData(address _customer) public notPaused{\n        \n        int id = customerToAgreementID[_customer];\n        requestDataFromAPI();\n        validateOracleData();\n        agreementIdToRetrievedData[id] = aggregateData;\n\n    }\n\n\n    /**\n    @dev\n    settles the agreement for a given customer by checking the\n    agreed value and paying it to the customer's wallet if the\n    updated values exceeds the baseline. Otherwise, return to donor.\n     */\n    function settleAgreement(address _customer) public notPaused {\n\n        // get ID from customer address\n        int agreementId = customerToAgreementID[_customer];\n\n        uint256 amount = agreementIdToValue[agreementId];\n        uint256 threshold = agreementIdToBaseline[agreementId];\n        address donor = agreementIdToDonor[agreementId];\n        uint256 retrieval = agreementIdToRetrievedData[agreementId];\n\n        WithdrawFundsFromAave(amount);\n\n        // subtract expended amount from the running total of deposits\n        depositedFunds-= agreementIdToValue[agreementId];\n        \n        // set transaction value to 0 to prevent re-spending\n        agreementIdToValue[agreementId] = 0;\n\n        customerToAgreementID[_customer] = 0;\n\n\n        if (retrieval > threshold){\n            \n            require(dai.transfer(_customer, amount));\n        }\n\n        else{\n\n            require(dai.transfer(donor, amount));   \n        }         \n\n\n\n    }\n\n    /**\n    @dev\n    withdraws enough dai from Aave pool to equal the total\n    accumulated profit and transfers it to the owners wallet\n    always persists enough adai in contract to payout all\n    active agreements\n     */\n    function takeProfits() public onlyOwner {\n\n        uint totalAmount = adai.balanceOf(address(this));\n        uint profit = totalAmount - depositedFunds;\n        \n        if (dai.balanceOf(address(this)) < profit){\n            WithdrawFundsFromAave(profit-dai.balanceOf(address(this)));\n        }\n        \n        require(dai.transfer(owner, profit));\n    \n    }\n\n    /**\n    @dev\n    release any spare LINK to the contract owner\n     */\n    function retrieveLINK() public onlyOwner{\n        \n        LinkTokenInterface link = LinkTokenInterface(chainlinkTokenAddress());\n        require(link.transfer(owner, link.balanceOf(address(this))), \"Unable to transfer\");\n    }\n\n    function circuitBreaker(bool _paused) public onlyOwner{\n        paused = _paused;\n\n    }\n\n\n    function escapeHatch() public onlyOwner{\n        // for testing purposes, if all gone wrong, retrieve funds\n        // to save having to get more from faucets\n\n        if (dai.balanceOf(address(this))>0){\n            require(dai.transfer(owner,dai.balanceOf(address(this))));\n        }\n    \n        if (adai.balanceOf(address(this))>0){\n        require(adai.transfer(owner,adai.balanceOf(address(this))));\n        }\n\n        LinkTokenInterface link = LinkTokenInterface(chainlinkTokenAddress());\n        if (link.balanceOf(address(this))>0){\n        require(link.transfer(owner, link.balanceOf(address(this))), \"Unable to transfer\");\n        }\n\n    }\n\n\n\n    ////////////////////////////\n    // INTERNAL ORACLE REQUEST FUNCS\n\n        /**\n        @dev\n        outer function that calls the oracleRequest func once per oracle\n         */\n        function requestDataFromAPI() internal onlyOwner notPaused{\n\n        // require protects against aggregaData ==0 from forgetting to set weights\n        require(w1+w2+w3 != 0, \"please set weights for aggregating oracle data\");\n        \n        index = 0;\n        oracleRequest(APIaddresses[0]);\n        oracleRequest(APIaddresses[1]);\n        oracleRequest(APIaddresses[2]);\n    \n    }\n\n    /**\n    @dev\n    This function calls the oracles by building the request then calling the internal\n    fulfill() function. \n    Each fulfill adds new data to the oracleData[] array and increments the index.\n     */\n    function oracleRequest(string memory url) internal notPaused returns (bytes32 requestId) \n    {   \n        // oracle request happens here. URL is passed as var url\n        // args are jobID, callback address (this contract) and fulfill function from this contract\n        Chainlink.Request memory request = buildChainlinkRequest(jobID, address(this), this.fulfill.selector);\n        \n        // Set the URL to perform the GET request on\n        request.add(\"get\", url);\n        request.add(\"path\", \"data.0.number\");\n        \n        // Sends the request\n        return sendChainlinkRequestTo(oracle, request, fee);\n    }\n\n    function fulfill(bytes32 _requestId, uint _value) public recordChainlinkFulfillment(_requestId){\n        // fulfill will be called 3x: 1x for each call to OracleRequest (via this.fulfill.selector arg)\n\n        // assign data from oracle to position in oracleData array\n        oracleData[index] = _value; \n        // iterate through array indexes\n        index = index+1; // increment index\n        // calculate weighted mean of data in oracleData array\n        aggregateData = ((w1*oracleData[0]/100)+(w2*oracleData[1]/100)+(w3*oracleData[2]/100))/3;\n    }\n\n\n    /**\n    @dev\n    ensures a sufficient number of oracles return valid data\n    avoids accidentally centralizing workflow by relying on 1 oracle\n     */\n    function validateOracleData() internal notPaused {    \n\n        for (uint16 i = 0; i<oracleData.length; i++) {  //for loop example\n            if (oracleData[i] ==0){\n\n                badOracles++;\n            } \n        }\n\n    }\n\n\n\n\n    // VIEW FUNCS\n\n    function viewValueFromOracle() public view returns(uint256 viewValue){\n        //  show aggregated oracle data to user\n        viewValue = aggregateData;\n    }\n\n    function checkIdForCustomer(address _customer) public view returns(int){\n        return(customerToAgreementID[_customer]);\n    }\n\n    function checkIdForDonor(address _donor) public view returns(int){\n        return(donorToAgreementID[_donor]);\n    }\n\n    function checkvalueForAgreementId(int agreementId) public view returns(uint256){\n        return(agreementIdToValue[agreementId]);\n    }\n\n    function checkDepositAmount() public view returns(uint256 deposit){\n        // view function to show user how much DAI was deposited\n        deposit = depositedFunds;\n    }\n\n    function checkBalance() public view returns (uint256 dai_balance, uint256 adai_balance) {\n        \n        // balance of DAI and aDAI in contract\n        // aDAI is the debt token from the Aave pool\n        \n        dai_balance = dai.balanceOf(address(this));\n        adai_balance = adai.balanceOf(address(this));\n\n    }\n\n    // MODIFIERS AND ACCESSORY FUNCTIONS\n    \n    modifier onlyOwner(){\n        require(owner==msg.sender);\n        _;\n    }\n\n    modifier notPaused(){\n        require(paused==false, \"Contract is paused\");\n        _;\n    }\n    \n\n    function stringToBytes32(string memory source) public pure returns (bytes32 result) {\n        bytes memory tempEmptyStringTest = bytes(source);\n        if (tempEmptyStringTest.length == 0) {\n            return 0x0;\n        }\n\n        assembly {\n            result := mload(add(source, 32))\n        }\n    }\n}\n",
  "sourcePath": "contracts/BrightLink.sol",
  "type": "contract"
}